:020000040800F2
:1000000078170020A101000839290008E31A000828
:1000100005260008F9090008454200080000000014
:10002000000000000000000000000000913E0008F9
:10003000450A00080000000011390008933E00083E
:10004000BB010008BB010008BB010008BB010008A0
:10005000BB010008BB010008BB010008BB01000890
:10006000BB010008BB010008BB010008BB01000880
:10007000BB010008BB010008BB010008BB01000870
:10008000BB010008BB010008BB010008BB01000860
:10009000BB010008BB010008BB010008BB01000850
:1000A000BB010008BB010008BB010008BB01000840
:1000B000BB010008BB010008BB010008BB01000830
:1000C000BB010008BB010008BB010008BB01000820
:1000D000BB010008214200082D420008BB010008B6
:1000E000BB010008BB010008BB010008BB01000800
:1000F000BB010008BB010008BB010008BB010008F0
:10010000BB010008BB010008BB010008BB010008DF
:10011000413F0008BB010008BB010008BB0100080B
:100120000D0A0008BB010008BB010008BB01000864
:10013000BB010008BB010008BB010008BB010008AF
:10014000BB010008BB010008BB010008BB0100089F
:10015000BB010008BB010008BB01000839420008D0
:10016000BB010008BB010008BB010008BB0100087F
:10017000BB010008BB010008BB0100080000000033
:10018000BB010008BB010008DFF810D000F0B2F896
:100190000048004789460008AFF300807817002028
:1001A0000648804706480047FEE7FEE7FEE7FEE711
:1001B000FEE7FEE7FEE7FEE7FEE7FEE7313F000869
:1001C000890100082DE9F05F0546002092469B4614
:1001D00088460646814640241BE02846414647465D
:1001E000224600F077F853465A46C01A914110D380
:1001F00011461846224600F05EF82D1A67EB0108FA
:100200004F4622460120002100F055F817EB000967
:100210004E41201EA4F10104DFDC484631462A4647
:100220004346BDE8F09F10B5431A934209D28318A4
:10023000881803E010F8011D03F8011D521EF9D2C1
:1002400010BD40EA01039B0703D009E008C9121F53
:1002500008C0042AFAD203E011F8013B00F8013B80
:10026000521EF9D210BDD2B201E000F8012B491E96
:10027000FBD270470022F6E710B513460A46044643
:100280001946FFF7F0FF204610BD30B50B4601467A
:1002900000202022012409E021FA02F59D4205D325
:1002A00003FA02F5491B04FA02F52844151EA2F1CF
:1002B0000102F1DC30BD202A04DB203A00FA02F111
:1002C000002070479140C2F1200320FA03F3194344
:1002D00090407047202A04DB203A21FA02F00021E6
:1002E000704721FA02F3D040C2F120029140084346
:1002F00019467047064C074D06E0E06840F00103E0
:1003000094E8070098471034AC42F6D3FFF740FF5B
:10031000EC4B00080C4C000870B58C1810F8015B11
:1003200015F0070301D110F8013B2A1106D110F88E
:10033000012B03E010F8016B01F8016B5B1EF9D192
:100340002B0705D40023521E0DD401F8013BFAE718
:1003500010F8013BCB1A921C03E013F8015B01F883
:10036000015B521EF9D5A142D8D3002070BD000018
:10037000064B30B1012807D10A462021184600F06B
:1003800043BB0A461021F9E770470000000802400D
:10039000054A18B1012803D000207047102100E061
:1003A0002021104600F029BB0008024030B587B07C
:1003B00014216846FFF75EFF0F480024016841F0F2
:1003C0000401016000680D4D00F004000590224614
:1003D0003021284600F0CDFD302000900120CDE9ED
:1003E000010469462846039400F0C6FC04480470E2
:1003F000047307B030BD00003038024000080240EE
:10040000DC0C00202DE9F04700F0B8FD0024DFF8F7
:100410009080064640F2DC59A24600BF04EB440738
:10042000404618F82710012902D003290BD030E0EC
:1004300008EB87004068311A49452AD3002120463D
:1004400000F030F825E000EB8705697A99B169681A
:10045000721A4A451DD385F809A06E60287A08B142
:10046000401E287200212046FFF782FF297A81B9B9
:1004700008F827A00DE0287A58B16868301AB0F55E
:10048000FA7F06D301206872014620466E60FFF7AE
:100490006FFF641CE4B2012CC0D9BDE8F0870000F6
:1004A000DC0C00202DE9F0410C460546012811D84E
:1004B0000CB1022000E00020094F05EB450607F8CB
:1004C000260000F05BFD014607EB8600416000213D
:1004D0000172447221462846BDE8F041FFF748BF4B
:1004E000DC0C00202DE9F0410E46074601281BD800
:1004F0000E4C07EB470504F8256000F03FFD014670
:1005000004EB8500416000210172012E05D0022E0E
:1005100003D004F82510417201E0012141723846F0
:10052000BDE8F041FFF724BFBDE8F081DC0C0020FE
:100530002DE9F0410D460446012819D89DB10D4F13
:1005400004EB4406032007F8260000F017FD0146DF
:1005500007EB860041600572012141722046BDE82B
:10056000F041FFF705BFBDE8F0410021FFF7BABF3A
:10057000BDE8F081DC0C002000B500F005F8002893
:1005800000D0012000BD0000022801D900207047E2
:10059000014931F8100070472000002070B586B086
:1005A00014216846FFF766FE3A480024016841F0CE
:1005B00002010160006800F002000590354810302B
:1005C000016841F002010160016801F0020105913A
:1005D000016841F0040101600068694600F0040010
:1005E0000590E02000900220CDE90104CDE9034010
:1005F000294800F0C1FB294E346028485321283097
:100600000160001D40F2E732026024483830046087
:1006100022481830036823F4E6430360036843F478
:10062000D04303601D482030036823F0200303609B
:10063000036843F01003036018480123143003607B
:1006400081253560164E3460154828300160001D44
:100650000260134834300460001D046010481830F4
:10066000016847F2733291430160016846F66802FF
:10067000114301600A482030016821F02201016025
:10068000016841F0110101600548143003603560D4
:1006900006B070BD30380240000402400004004043
:1006A0000008004009B14FF47A7100F001B8000071
:1006B00002281BD84FF47A72914200D911460C4B94
:1006C000914223F8101000D911464FF47A73594320
:1006D000B1FBF2F128B1012805D0022806D1054866
:1006E00003E0054801E00348001F01607047000077
:1006F00020000020380800403804004001000B486A
:1007000007D0012908D0022909D003290AD00020E6
:1007100070474FF4805107E04FF4005104E04FF46C
:10072000804101E04FF4004103F08DBD000C024018
:1007300070B586B014216846FFF79CFD0E48002472
:10074000016841F00801016000680C4E00F00800EB
:100750004FF47045059022462946304600F009FCCA
:1007600001200095CDE9010469463046039400F06C
:1007700003FB06B070BD000030380240000C0240A0
:100780000D4B58B101280DD002280FD0032811D1EC
:100790000A464FF40041184603F05CBD0A464FF488
:1007A0008051F8E70A464FF40051F4E70A464FF447
:1007B0008041F0E770470000000C024000B587B0B0
:1007C00014216846FFF756FD0A480021026842F0EE
:1007D000100202600068029100F0100005904FF4D2
:1007E0006050CDE900016946034800F0C5FA07B042
:1007F00000BD0000303802400010024010B50D4A24
:1008000020B1012805D0022811D109E04FF4006180
:1008100001E04FF48051BDE81040104601F062B98C
:100820004FF40051104600F09FFB012800D000203B
:1008300010BD0000001002400100094807D0012946
:1008400007D0022909D0032905D0002070470821CC
:1008500003E0042101E08021024803F007BB00000F
:10086000000802400000024070B586B014216846BE
:10087000FFF700FD1C480024016841F00101016000
:10088000016801F001010591016841F00401016076
:100890000068164D00F00400059022460821284605
:1008A00000F067FB00220421284600F062FB0022D2
:1008B0000221284600F05DFB0D4E002280213046CB
:1008C00000F057FB0E2000900120CDE9010469469D
:1008D0002846039400F050FA802000906946304684
:1008E00000F04AFA06B070BD3038024000080240FD
:1008F000000002400C4B58B101280CD002280ED049
:1009000003280FD10A460948802100BF03F0B5BA79
:100910000A46082101E00A4604211846F6E70A467D
:100920000221FAE770470000000802400000024080
:1009300010B50021084600F049F80021012000F020
:1009400045F80021BDE81040022000F03FB800004B
:10095000094A28B1012806D0022807D00020704794
:100960004FF4807104E04FF4007101E04FF48061B6
:10097000104603F084BA00000010024070B586B043
:1009800014216846FFF776FC0E480024016841F008
:100990001001016000680C4E00F010004FF4E0659B
:1009A000059022462946304600F0E3FA01200095E2
:1009B000CDE9010469463046039400F0DDF906B044
:1009C00070BD00003038024000100240094B40B1B9
:1009D00001280AD002280CD10A464102184603F029
:1009E00055BA0A464FF48071F8E70A464FF4007191
:1009F000F4E7704700100240FEE710B500F0B4FACB
:100A0000012800D0002010BD00F0B3BA70B50B4D26
:100A100028680B4CC00603D51020206003F0B0F905
:100A20002868800603D52020206003F0A3F92868F9
:100A300010F00D0F01D00D20206070BD0064024049
:100A400008640240704770B50446B0F86A008142FD
:100A500003D30020A4F86A0070BD451A21442A4639
:100A6000601D491DFFF7DFFBA4F86A5070BD72B628
:100A7000FEE7002811D0017881B1416871B1017A97
:100A800061B1818951B1082908D890ED060AB5EE07
:100A9000C00AF1EE10FA01DD012070470020704716
:100AA00010B50B4602280ED26BB100EB00100749BF
:100AB00000EB400001EB80011C2218461C31FFF7BF
:100AC000B2FB012010BD002010BD0000A4010020D9
:100AD0002DE9F04100F052FA0025DFF86480064667
:100AE0002F4600BF05EB051000EB400108EB810429
:100AF0001C2104F11C00FFF7BDFBC4F8B470C4F85E
:100B0000B870C4F8BC70C4F8C07084F8C870012D07
:100B100013D000203044C4F8C4002046FFF7A9FFDA
:100B200084F8260004F13800616801F0DBFD6D1CDB
:100B3000EDB2022DD6D3BDE8F081FA20EAE700003D
:100B4000A40100202DE9F0472DED028B82B000F0CA
:100B500015FADFF8388106460025DFED4D8A9FED56
:100B60004D8A2F464FF0010905EB051000EB4001BF
:100B700008EB81042046FFF77CFF84F8260038B399
:100B800004F13800824601F047FE94F8C81091B194
:100B9000012810D084F8C870F8B1504601F062FD09
:100BA00028B18168E162C16821630069606306F56C
:100BB000FA70C4F8C400A06A20B1301A41F288313A
:100BC000884201D984F8247094F8C800B8B350E082
:100BD00084F8257084F824704BE0B4F8B400D4EDA8
:100BE000050A00EE100A94ED041AB8EE400A40EE31
:100BF000010AC4ED070A94ED060AB5EEC00AF1EE4B
:100C000010FA08D980EE801A21EE080AB5EEC00A63
:100C1000F1EE10FA02D2B0EE680A06E010EE100A09
:100C20001D49884201DDB0EE480A84ED080A84F8C7
:100C3000259084F8249000F0A1F9A062B7E7FFE7BF
:100C4000504601F077FDA0B9D4F8C400301A10D492
:100C50004FF4967104F1B400CDE90001A3896289D3
:100C6000217A504601F003FE68B106F5FA70C4F827
:100C7000C4006D1CEDB2022DFFF476AF02B0BDECE6
:100C8000028BBDE8F08784F8C890F2E7A401002049
:100C9000000000000000C8420000C8422DE9F041F9
:100CA0000446876D00F06AF9064694F83500002581
:100CB000022806D08020606584F834500120BDE809
:100CC000F0812068016821F0160101602068416907
:100CD00021F080014161206C08B9A06C20B120682E
:100CE000016821F0080101602068016821F001011C
:100CF00001600CE000F042F9801B052807D9202094
:100D00006065032084F8350084F83450D7E7206804
:100D10000068C007EED194F85C103F208840B860AE
:100D2000012084F8350084F834500020C7E790F89B
:100D30003510022903D0802141650120704705212B
:100D400080F835100068016821F001010160002081
:100D50007047000070B5044600F010F90546601CAD
:100D600002D004480078044400F008F9401BA04277
:100D7000FAD370BD3C0300202DE9F84FDFF8BCA189
:100D80000022012503264FF00F090AF1040BAAF1F6
:100D9000040E00BF0B6805FA02F42340A34270D191
:100DA0000F7907F00307012F01D0022F16D18768B2
:100DB0004FEA420806FA08FC27EA0C07D1F80CC0F3
:100DC0000CFA08FC4CEA070CC0F808C04768A743B7
:100DD0000C79C4F3001494403C4344600C79E44320
:100DE000A4070AD0C4684FEA420C06FA0CF7BC43C9
:100DF0008F6807FA0CF72743C7600C7904F00304E7
:100E0000022C12D1D40800EB840CDCF820405707E8
:100E1000FF0E09FA07F824EA0804D1F8108008FA4E
:100E200007F848EA0408CCF8208004684FEA420C2E
:100E300006FA0CF7BC430F7907F0030707FA0CF723
:100E4000274307604C6814F4403F70D03C4C27683F
:100E500047F480472760246822F0030704F48044A5
:100E60000094384C07EB040CDCF8084897074FEA6D
:100E7000177809FA08F7BC43334FB84202D100276C
:100E800024E054E0314FB84201D101271EE0304F39
:100E9000B84201D1022719E02E4FB84201D10327F1
:100EA00014E02D4FB84201D104270FE02B4FB84278
:100EB00001D105270AE02A4FB84201D1062705E0F3
:100EC000284FB84201D1072700E0082707FA08F7A2
:100ED0002743CCF80878DAF800405746D1F804C028
:100EE0009C435FEACC2C00D51C433C60DBF80040FF
:100EF0005F46D1F804C09C435FEA8C2C00D51C43AC
:100F00003C60DEF800407746D1F804C09C435FEABD
:100F10008C3C00D51C433C60084F083F3C68D1F82E
:100F200004C09C435FEACC3C00D51C433C60521C8F
:100F3000102AFFF42FAFBDE8F88F0000083C0140F5
:100F400044380240003001400000024000040240EA
:100F500000080240000C0240001002400014024051
:100F600000180240001C02400069084000D0012027
:100F700070470AB1816170470904FBE70148806846
:100F8000704700003C030020024881680278114449
:100F9000816070473C0300200B4810B5016841F4A4
:100FA00000710160016841F480610160016841F4F1
:100FB00080710160032000F06FF80F2000F006F848
:100FC00000F024F8002010BD003C024070B50D4D2B
:100FD00004464FF47A712878B1FBF0F00A490968A9
:100FE000B1FBF0F000F00CFB48B9102C07D2002246
:100FF0002146501E00F030F800206C6070BD0120CA
:1010000070BD00003C030020480300200A4808B5DA
:10101000016841F480410160006800F48040009064
:101020000548001F016841F080510160006800F030
:101030008050009008BD000044380240002809DBC1
:1010400000F01F02012191404009800000F1E020E2
:10105000C0F8001170470000F0B40E4B1B680C463E
:10106000C3F30223C3F10705042D00D90425191D7C
:10107000072901D2002300E0DB1E012606FA05F154
:10108000491E214099409E40761E16403143F0BCD7
:1010900003F00CB90CED00E0064900F00702086807
:1010A0004FF6FF03184040EA0220034A104308604D
:1010B000704700000CED00E00000FA052DE9F04754
:1010C0000E46050065D0DFF81481D8F80000F7B2AD
:1010D00000F00700B04207D288F80070D8F800008E
:1010E00000F00700B04254D128683D4C810712D56A
:1010F000400703D5206840F4E050206028780007BE
:1011000003D5206840F4604020602068A96820F082
:10111000F000084320602878C0072DD03049686867
:101120000839012812D0022813D0032811D00968E9
:10113000890700292DDA216821F00301014321608C
:10114000FFF71CFF814641F2883A0EE009688903E7
:10115000EFE709688901ECE7FFF710FFA0EB090151
:10116000514502D90320BDE8F0872068696800F086
:101170000C00B0EB810FEFD1D8F80010404601F021
:101180000701B14207D90770006800F00700B042BC
:1011900001D00120E7E72878400705D52068E968F5
:1011A00020F4E050084320602878000706D5206826
:1011B000296920F4604040EAC100206000F038F85E
:1011C0002168084AC1F30311515CC8400649086010
:1011D00006480068FFF7FAFE0020C4E7003C024022
:1011E00008380240784700084803002040030020E8
:1011F0000448054900680968044AC1F38221515C2A
:10120000C84070474803002008380240884700085B
:101210000448054900680968044AC1F34231515C39
:10122000C84070474803002008380240884700083B
:10123000154810B5006810F00C02144813D014497A
:10124000042A0FD0082A0ED10F4C241F22682368CD
:1012500002F03F025B0207D52068C0F38810A0FBB4
:10126000010106E0084610BD2168C1F38811A1FB09
:1012700000010023FEF7A6FF2168C1F30141491CCC
:101280004900B0FBF1F010BD083802400024F40022
:1012900040787D012DE9F84F04006ED02078DFF80A
:1012A0004C93C007A9F104054AD009F10400016874
:1012B000C1F38101012908D00068C0F38100022830
:1012C0000AD1D9F80000400206D52868800337D536
:1012D00060680028E1D033E06068B0F5803F10D04E
:1012E000B0F5A02F286810D020F48030286028683E
:1012F00020F4802028606068A8B1FFF73FFE064612
:101300000DE0286840F48030F4E740F48020286045
:10131000F7E700BFFFF732FE801B642873D8286808
:101320008003F7D50CE0FFF729FE064605E000BF75
:10133000FFF724FE801B6428F0D828688003F7D4C8
:101340002078DFF8AC8280074FF0000A3ED5A7482E
:10135000001D016811F00C0F08D00068C0F3810077
:1013600002280BD1D9F80000400207D42868800772
:1013700016D5E068012800D112E033E1E068B8B189
:101380000120C8F80000FFF7F9FD064605E000BFA0
:10139000FFF7F4FD801B0228C0D828688007F7D526
:1013A0002868216920F0F80040EAC10028600DE0BB
:1013B000C8F800A0FFF7E2FD064604E0FFF7DEFDF7
:1013C000801B02281FD828688007F7D420780007E0
:1013D00022D5864F87486169703771B1012101605C
:1013E000FFF7CCFD064604E0FFF7C8FD801B02288E
:1013F00009D838688007F7D50EE0C0F800A0FFF7DD
:10140000BDFD064605E082E0FFF7B8FD801B02281F
:101410007DD838688007F7D42078400768D5DFF892
:10142000CCB100270BF13C0BDBF80000C0000BD463
:10143000DBF8001041F08051CBF80010DBF8000021
:10144000012700F0805000906B4E3068C00510D42A
:10145000306840F480703060FFF790FD009005E048
:10146000FFF78CFD0099401A022850D83068C0055B
:10147000F6D55E4EA0686C3601280FD0052830687E
:1014800010D020F001003060306820F0040030609F
:10149000A068B8B1FFF772FD00900FE0306840F02F
:1014A0000100F4E740F004003060F7E7FFF766FD65
:1014B0000099411A41F28830814266D8306880072D
:1014C000F4D50EE0FFF75AFD009007E0FFF756FD58
:1014D0000099411A41F28830814256D8306880071D
:1014E000F4D42FB1DBF8001021F08051CBF80010BC
:1014F000A069C8B33D49091D0968C1F381010229EA
:101500004AD00228504607D0C8F8600000E03CE00E
:10151000FFF734FD04463BE04746C8F86000FFF79C
:101520002DFD064605E000BFFFF728FD801B0228C1
:101530002BD828688001F7D4D4E907010843A16AB1
:101540002E4A490802EB0141626A41EA82110843CE
:1015500094F82C1040EA0161C9F8001001203866A7
:10156000FFF70CFD044606E03EE000BFFFF706FD76
:10157000001B022809D828688001F7D534E000BF95
:10158000FFF7FCFC001B022802D90320BDE8F88FFE
:1015900028688001F4D427E00128F7D0D9F80000AA
:1015A000E26900F4800191421CD1226A00F03F01FF
:1015B000914217D147F6C071626A0140B1EB821FB8
:1015C00010D1A26A4FF0FF3300F4403103EB520216
:1015D000B1EB024F06D194F82C1000F07060B0EB24
:1015E000016F01D00120D1E70020CFE7043802408D
:1015F00000004742800E4742007000400000FFFF9D
:1016000010B5401EB0F1807F01D3012010BD4FF016
:10161000E02460610F21601702F048FE0020A06105
:1016200007202061002010BD704710B5044601F06E
:1016300087FA38B103680122011DBDE81040184641
:1016400000F0B6B92046BDE8104001F00FB8000028
:10165000F8B5016804460868CA684B6910F00F0FB6
:101660004FF0000559D003F0010602F4907737439C
:1016700065D0C10705D0D10503D5616C41F00101EA
:101680006164410705D5D90703D0616C41F00201BF
:101690006164810705D5D90703D0616C41F004016D
:1016A0006164010707D502F02001314303D0616C6A
:1016B00041F008016164616C00293AD0800604D5CC
:1016C000900602D5204602F06FFC20684069616CEC
:1016D000C0F38010090700D460B3204602F03DFC3F
:1016E00020684069400621D52068143050E8001F6A
:1016F00021F0400140E80012002AF5D1E06BA8B1CA
:1017000072490165E06BFFF712FB002811D0E06B16
:10171000016D01B0BDE8F040084783060FD5930680
:101720000DD52046BDE8F84002F03EBC2046FFF74C
:101730007CFFF8BD2046FFF778FF6564F8BD266B97
:101740002023012E7ED1C6067CD5D6067AD5086820
:101750004868009048694FF0020640064DD5E26B9C
:10176000106840684FF480770004000C3AD0A18DD7
:10177000814237D9E085D069B8422DD020680C303D
:1017800050E8001F21F4807140E80012002AF5D1D2
:101790002068143050E8001F21F0010140E80012D9
:1017A000002AF5D12068143050E8001F21F04001D4
:1017B00040E80012002AF5D184F842302563206801
:1017C0000C3050E8001F21F0100140E80012002A00
:1017D000F5D1E06BFFF762FA6663A08DE18D401AE8
:1017E00081B206E0A18D8142A8D1D069B842A5D1CD
:1017F00066632046FFF718FFF8BDA08DE18D401A03
:1018000081B2E08D0028F7D00029F5D020680C3097
:1018100050E8002F22F4907240E80027002FF5D105
:101820002068143050E8002F22F0010240E8002721
:10183000002FF5D184F84230256320680C3050E841
:10184000002F00E006E022F0100240E80023002B09
:10185000F3D1CDE705062BD5150629D594F841001F
:101860002128C9D1A068B0F5805F01D12069B0B14D
:10187000206A411C2162216800784860E08C401E8B
:101880000004000CE084B7D12068C16821F0800119
:10189000C1602068C16841F04001C160F8BD206AA4
:1018A0000088C0F308004860206A801C2062E5E7D9
:1018B0004006F3D55006F1D5CA68204622F0400212
:1018C000CA6084F8413000F00BF9F8BD4D3F0008C4
:1018D00070B5040004D094F84100002510B106E072
:1018E000012070BD84F84050204600F023F82420E9
:1018F00084F841002068C16821F40051C16020468D
:1019000002F0B4FB2068016921F490410161206874
:10191000416921F02A0141612068C16841F4005108
:10192000C1606564202084F8410084F8420065634A
:10193000002070BD10B586B0044614216846FEF73D
:1019400099FC18492068884229D11748002102686B
:1019500042F010020260006800F01000059012488A
:101960001438026842F001020260006800F00100D1
:1019700005904FF4C06000900220CDE901010320E2
:1019800003900720049069460848FFF7F5F9002204
:1019900011462520FFF760FB2520FFF74FFB06B01F
:1019A00010BD000000100140443802400000024019
:1019B00090F84230202B01D00220704721B11AB19B
:1019C0000023036302F0D8BB0120704710B5044622
:1019D00001F0B6F8B0B1B0F86A10642902D3002162
:1019E000A0F86A100279B0F86A104318491CA0F8F0
:1019F0006A105A7103680122011DBDE810401846A3
:101A0000FFF7D6BF2046BDE8104000F040BE2DE9EC
:101A1000F843044690F84100984616460D462028A3
:101A200002D00220BDE8F88385B17EB10020606459
:101A3000212084F84100FFF7A1FAA6848146E684BC
:101A4000A0682027B0F5805F02D003E00120E9E71D
:101A5000206910B12E4600250EE000260CE0802102
:101A6000204602F0A4FBA8B9C6B116F8010B216804
:101A70004860E08C401EE084E08C4B464FF0000252
:101A8000CDF800800028EAD14FF04001204602F056
:101A90008EFB40B184F841700320C3E735F8020B98
:101AA000C0F30800E3E784F841700020BAE790F83B
:101AB0004130202B01D00220704779B172B1016210
:101AC0008284C28400214164212180F84110006891
:101AD000C16841F08001C16000207047012070475B
:101AE0007047FEE710B5FFF73FFA08B1002010BDC0
:101AF000012010BD70B516462DED028B0D46044633
:101B000000F0D0FBDFED2A8AE8B3B4F84400A84225
:101B100000D2054600EE100AF8EE400A00EE105A18
:101B2000B8EE401A81EE200AD4ED100A94ED141A92
:101B300020EE200AD4ED150A30EE600AC0EE010A4C
:101B400094ED200A94ED1F1A00EE810A94ED131A09
:101B5000D4ED120A00F003F9B0EE408A94ED050AC4
:101B6000D4ED060A38EE401A70EEC00A81EE200A63
:101B7000B7EE001AF0EE680A00F0F1F8F0EE400A55
:101B800094ED021A00E00CE094ED010A002E31EE13
:101B9000401A00EE810A01D086ED008ABDEC028B6E
:101BA00070BD0EB1C6ED008AB0EE680AF6E700001F
:101BB0000000000070B586B014216846FEF75AFB9D
:101BC0003A480024016841F001010160016801F018
:101BD00001010591016841F002010160016801F015
:101BE00002010591016841F004010160006800F004
:101BF000040005902D481030016841F0005101604B
:101C0000006800F00050059028481430016841F445
:101C1000007101600068032500F400700590302019
:101C2000CDE90005694602942148FFF7A5F8694609
:101C300020480095FFF7A0F81F4E002204213046EF
:101C4000FFF797F9002208213046FFF792F90C20A0
:101C500000900125CDE90154694630460394FFF711
:101C60008BF816494FF001100860144808300460E2
:101C70001248143004601248C0F80441D0F804132C
:101C800021F44031C0F80413D0F8041341F480313A
:101C9000C0F80413C0F80851C0F82C41D0F8101156
:101CA00041F07C51C0F8101106B070BD30380240D0
:101CB000000002400004024000080240007400409E
:101CC00000200140022801D301207047C0EBC00171
:101CD00001EB0010044901EBC0000079012801D09C
:101CE000022070470020704728000020A0B390F821
:101CF000B21089B390F8B01002292BD190ED261ABA
:101D000090ED240AB4EEC01AF1EE10FA22D990ED4B
:101D1000030AD0ED021AD0ED220A30EE610AD0EDAE
:101D2000231A20EE210AB4EEE00AF1EE10FA01DCEB
:101D3000B0EE600AD0ED280A71EE600AF5EEC00A36
:101D4000F1EE10FA01D2F1EE600AF4EEC00AF1EE03
:101D500010FA02D801207047FFE70020FBE7B4EE3D
:101D6000E00AF1EE10FA02D2B0EE600A7047B4EE6B
:101D7000C10AF1EE10FAF9DDB0EE410A7047000039
:101D800010B504462DED028BB0EE408A00F08AFAC1
:101D900000284FD094ED021AD4ED010AB0EE480AA3
:101DA000FFF7DDFFD4ED010A94ED021A30EE600A70
:101DB00031EE601AC0EE010A94ED041A94ED030AA4
:101DC00031EE401A00EE810A94ED0A1AD4ED090AA8
:101DD000FFF7C5FFD4ED0C0A94ED0B1A70EE600A04
:101DE00080EE810A94ED0E1AD4ED0D0AFFF7B7FFCD
:101DF00094ED071A208CC0EE010A00EE100A94ED53
:101E00001D1AB8EE400A60EE800A94ED1E0A00EE3C
:101E1000810A00EE900AB8EE601ADFED080AFFF7BB
:101E20009EFFF6EE000A30EE200ABCEEC00A10EE6D
:101E3000100A80B2BDEC028B10BD00000000000053
:101E4000022801D300207047C0EBC00101EB001055
:101E5000024901EBC000B0F8AE0070472800002036
:101E6000022801D300207047C0EBC00101EB001035
:101E7000024901EBC000B0F8AC0070472800002018
:101E8000022802D39FED060A7047C0EBC00101EBA8
:101E90000010044901EBC00090ED280A70470000D3
:101EA0000000000028000020022801D30420704711
:101EB000C0EBC00101EB0010024901EBC00090F83B
:101EC000B000704728000020022802D39FED060AC8
:101ED0007047C0EBC00101EB0010044901EBC000EA
:101EE00090ED260A70470000000000002800002046
:101EF0002DE9F0412DED028BFFF75CFE0026264F09
:101F00009FED268A354600BFC6EBC60000EB0610E3
:101F100007EBC004201D94ED020A84ED260A84ED2F
:101F2000278A84ED288A84ED298A84ED2A8A94ED13
:101F3000020AFFF725FF24F8AC0F65802571657153
:101F4000A571E5712572218854F86C0C00F010FA27
:101F500014F83E0CAC3C012801D0012200E0002224
:101F6000B4F86C10A06EFFF704F82079012803D1B3
:101F7000201D00F097F940B1761CF6B2022EC3D3B3
:101F80000020BDEC028BBDE8F081042004F8B00F06
:101F9000012020710320F4E7280000200000000049
:101FA000022809D2C0EBC00101EB0010034901EB8C
:101FB000C0000079012800D00020704728000020D0
:101FC00002280BD2C0EBC00101EB0010044901EB69
:101FD000C00090F8B20008B101207047002070479F
:101FE0002800002002280AD2C0EBC00101EB00103B
:101FF000054901EBC00090F8B000022801D0002094
:1020000070470120704700002800002002280BD2F2
:10201000C0EBC00101EB0010044901EBC00090F8D7
:10202000B10008B10120704700207047280000204F
:1020300070B50546FFF746FE002822D1C5EBC50066
:10204000104900EB051001EBC004032084F8B00038
:1020500094ED020A284600F04DF8606FFEF77AFE14
:1020600094F86E00012801D0012200E00022B4F8AB
:102070006C10A06E9334FEF77CFF00206077E07751
:10208000A07770BD2800002070B50546FFF71AFE46
:10209000002824D1C5EBC500154900EB051001EB64
:1020A000C004201D00F0FEF80126C8B194ED020A1C
:1020B0002846983400F01EF8267614F82A2C34F8B6
:1020C0002C1C54F8300CFEF754FF54F8280CFEF783
:1020D00041FE022020760020A0766076207770BD39
:1020E00084F8B460042084F8B000032070BD0000C0
:1020F0002800002070B504462DED028BB0EE408A1A
:10210000FFF7E0FD00281CD1C4EBC4002A4900EB16
:10211000041001EBC004B0EE480A94ED031AD4EDAC
:10212000020AFFF71CFE94F8B000B0EE408A0228C5
:102130000AD094ED020AB4EEC80AF1EE10FA03D206
:102140000420BDEC028B70BD201D00F0ABF8D8B1AF
:10215000B0EE480A201DFFF713FE05462946206C05
:1021600000F006F984ED268AA4F8AC50201D08D0B2
:10217000018C31B190ED070AB5EEC00AF1EE10FA0C
:1021800004D89FED0E0A13E00320DAE700EE901A60
:10219000B8EE601A00EE905AF8EE601AC1EE810AAD
:1021A00090ED0B1A60EE800A90ED0C0A00EE810AA9
:1021B000002084ED290AC4E7280000200000000068
:1021C0002DE9FC410446FFF77DFD002856D1C4EB04
:1021D000C400314900EB041001EBC0046F46606E8F
:1021E0004FF0000812284BD82C4DC5F83401C5F823
:1021F0000081D5F8080140F08040C5F80801FEF7DD
:10220000BDFE064605E000BFFEF7B8FE801B0528B0
:1022100036D8D5F800018007F6D5D5F84C01012550
:10222000C0F30B00388001AABDF80010201DFFF795
:1022300061FCBDF80000A4F8AE00DDED010AC4EDBC
:102240002A0A84ED270A94F8B300E8B1D4ED280AED
:102250009FED131A30EE600A40EE010AC4ED280A21
:1022600094F8B000022814D05FF0000084F8B200A7
:102270002046FFF73BFD84F8B1000020BDE8FC815B
:1022800084F8B2800520F9E784ED280A84F8B35079
:10229000E6E70120EAE700002800002000200140D6
:1022A0009A99193F002860D0D0ED020A90ED010AFA
:1022B000F4EEC00AF1EE10FA56D9D0ED040A90ED12
:1022C000030AF4EEC00AF1EE10FA4DD990ED061AA9
:1022D00090ED050AB4EEC01AF1EE10FA44D9D0ED33
:1022E0000B1AF5EEC01AF1EE10FA3DD990ED070A7F
:1022F000B5EEC00AF1EE10FA36D9018CA1B390ED1B
:10230000140AB5EEC00AF1EE10FA2DD910EE101A2B
:10231000B1F17E5F28DC90ED102AB5EEC02AF1EE17
:1023200010FA21D9B0F84410F1B190ED0C2A30EE3A
:10233000C22AC2EE210AD0ED0D1AF4EEE01AF1EE37
:1023400010FA11DCD0ED0E1AF4EEE01AF1EE10FAEC
:102350000AD3D0ED150A41EE000A90ED170AB4EE4B
:10236000E00AF1EE10FA01D2002070470120704718
:10237000B1F5805F01D340F6FF71012802D0034818
:102380000160704701480C38FAE7000014740040FF
:1023900030B587B014216846FDF76CFF194800245A
:1023A000016841F004010160016801F00401059138
:1023B000016841F080010160016801F08001059130
:1023C000016841F001010160016801F0010105911E
:1023D000016841F00801016000680B4D00F0080041
:1023E0000590012298212846FEF7C3FD9820009011
:1023F0000120CDE90104694628460394FEF7BCFCA0
:1024000007B030BD30380240000C024010B586B035
:1024100014216846FDF72EFF1D480024016841F491
:1024200000210160006800F4002005901848103871
:10243000016841F0010101600068022100F0010023
:10244000059003208DE8130003900820049069464E
:102450001048FEF791FC11480F4901604FF41651E6
:10246000C0E901140C21C460C0E904418461C46165
:10247000FFF72EFA08B1FEF7FAFA00220121342004
:10248000FEF7EAFD3420FEF7D9FD06B010BD0000CE
:102490004038024000000240004C004098030020F9
:1024A0000C4810B50A4901604FF4E1314160002148
:1024B00081600C22C160C0E904128161C161FFF733
:1024C00007FA002803D0BDE81040FEF7D0BA10BDCF
:1024D000001001402804002030B587B01421684660
:1024E000FDF7C8FE1D480024016841F40031016079
:1024F000006800F40030059018481038016841F079
:102500000101016000680C2500F0010000950590B4
:102510000220CDE9010403200390072004906946BE
:102520000F48FEF729FC10480E4901604FF4165180
:10253000C0E90114C460C0E904458461C461FFF7C7
:10254000C7F908B1FEF793FA002201212620FEF711
:1025500083FD2620FEF772FD07B030BD40380240F3
:1025600000000240004400405003002010B586B037
:1025700014216846FDF77EFE1E480024016841F0E4
:1025800020010160006800F020000590194814380F
:10259000016841F0040101600068694600F0040030
:1025A0000590C02000900220CDE901040320039093
:1025B000082004901048FEF7DFFB11480F49016026
:1025C0004FF4E131C0E901140C21C460C0E90441B9
:1025D0008461C461FFF77CF908B1FEF748FA002274
:1025E00011464720FEF738FD4720FEF727FD06B0CD
:1025F00010BD0000443802400008024000140140B1
:10260000E0030020FEE770B505464FF6FF7000229C
:102610004AF201040EE0AB5C58400023C60702D02A
:1026200084EA500000E040085B1CDBB2082BF5D3C5
:10263000521C92B28A42EED370BD0000084A0021BB
:1026400052F821302BB11B68834202D152F821008D
:102650007047491CC9B20229F2D30020704700001C
:102660009C010020002800D06430704710B5FFF7AF
:10267000E5FF00280AD0816F0122491C81670368A9
:1026800000F11C011846FFF793F9012010BD10B5A9
:10269000FFF7D4FF002824D090F85D10C9B190F85E
:1026A0005E10B1B9418B402906D2027F418B43189D
:1026B000491C41835A7704E000214183816F491C02
:1026C0008167018B29B1428B8A4202D3012180F8B4
:1026D0005E10036800F11C0101221846FFF768F93B
:1026E000012010BD70B50D46040018D0BDB17C218D
:1026F000FDF7C0FD002025600D4A84F8600000BF92
:1027000052F8201009B1A1420BD142F82040012219
:1027100004F11C012068FFF74BF9002070BD032075
:1027200070BD401CC0B20228EAD3012070BD000079
:102730009C01002020B190F85D0008B10120704795
:1027400000207047F0B591B0044672B6458B402D1D
:1027500000D940252A4604F11D016846FDF763FDB6
:10276000002684F85E6084F85D6062B6052D08D2AC
:10277000042084F86000E06E401CE066042011B084
:10278000F0BDA81E81B26846FFF73DFF0DEB0501C5
:102790006A4631F8021C884207D0052084F86000A0
:1027A000206F401C20670520E9E79DF80010237981
:1027B0000620994212D19DF80110677901F07F033C
:1027C000BB420BD1090609D4237A9DF802105B069F
:1027D0001B0E994202D1218BA94206D084F86000D9
:1027E000606F401C60670620C9E700200AE000BF58
:1027F00002EB4001E368B1F8031049BA23F8101066
:10280000401C80B221898142F2D884F86060A06EB9
:10281000401CA0660020B2E710B504000AD094F86E
:102820005D0048B194F85E0048B12046BDE8104014
:10283000FFF788BF032010BD94F8600010BDFEF7BD
:102840009DFB2169401A616988420ED372B600204F
:1028500084F85D0084F85E0062B6042084F86000AD
:10286000E06E401CE066042010BD012010BD2DE983
:10287000FC5F1D46DDE90C7B92460E46040006D047
:10288000206820B11FB116B10DB1082D02D9032067
:10289000BDE8FC9F94F85D0008B10120F8E78DF8D1
:1028A00000604FF003098DF801901146E8460DF1E4
:1028B000020000F03DF8294608F1040000F038F865
:1028C00006216846FFF79FFE8DF80600000A8DF886
:1028D000070072B6267184F80590A4F806A0258139
:1028E000E760FEF74BFBC4E9040B052000EB450055
:1028F00020830025658384F85E50012084F85D0004
:1029000084F8600062B6082269462068FFF7CFF8B5
:1029100048B184F85D50072084F86000A06F401C27
:10292000A0670720B4E7606E401C60660020AFE738
:102930000A0A027041707047FEE7002800DA404240
:102940007047000070B55C4D287800287ED00220CA
:10295000FDF754FF0026002809D1584CA078A5287F
:1029600006D020B3002000F0FBFEA0786870A1E044
:10297000E078A188C0F3401000F0D7F801460020AD
:10298000FDF796FEE0782189C0F3801000F0CDF8C5
:1029900001460120FDF78CFEE078A189C00900F016
:1029A000C4F801460220FDF783FE6E7082E0E078F5
:1029B000C0F300110320FDF79DFFE07800F0010156
:1029C0000220FDF797FFE078C0F340110020FDF7EB
:1029D00069FEE078C0F380110120FDF763FEE07826
:1029E000C1090220FDF75EFEA079C0064FF001008C
:1029F00010D5FFF7F7FA10B90120FFF745FB0120CA
:102A0000FFF7F0FA60B1208900F064F80120FFF7C9
:102A100071FB05E0FFF7E6FA10B10120FFF708FBB4
:102A2000A07AC0064FF0000011D5FFF7DBFA10B90D
:102A30000020FFF729FB0020FFF7D4FA68B1A08936
:102A400000F048F80020FFF755FB06E033E0FFF701
:102A5000C9FA10B10020FFF7EBFAA07900F00101EC
:102A60000020FDF78DFEA07A00F001010120FDF7A6
:102A700087FEA07900F002010020FDF733FDA07968
:102A8000C0F380010120FDF70DFDA07AC0F34001E5
:102A90000020FDF79BFFA07AC0F380010120FDF725
:102AA00095FFA07AC0F3C0010220FDF78FFF6E7082
:102AB000A08828812E7070BD0800002070040020BE
:102AC000024600200146535C491CC9B218440C2937
:102AD000F9D3704700EE100A9FED031AF8EE400A92
:102AE00080EE810A704700000000C84208B102A0D1
:102AF000704704A070470000434F4E464947555267
:102B0000454400004E4F545F434F4E46494755528F
:102B100045440000B0F57A7F01D3642070470A2154
:102B2000401DB0FBF1F0C0B27047002806D04FF452
:102B30007A70002902D0814200D808467047000010
:102B40000B4A002101EBC10303EB430352F823308E
:102B5000834206D101EBC10000EB400002EB800094
:102B60007047491CC9B20229ECD30020704700000D
:102B7000980400209FED091AB5EEC00AF6EE000A8F
:102B8000F1EE10FA02DB40EE010A01E050EE010A1C
:102B9000BDEEE00A10EE100A704700000000C842C7
:102BA000B5EEC00AB2EE041AF6EE000AF1EE10FA23
:102BB00002DB40EE010A01E050EE010ABDEEE00A40
:102BC00010EE100A70470000B5EEC00AF1EE10FAE0
:102BD00001D80020704710EE100A0949884202DB34
:102BE0004FF6FF7070479FED071AF6EE000A40EEB1
:102BF000010ABCEEE00A10EE100A80B27047000035
:102C000066D623440000C842022801D30020704742
:102C100000EBC000024900EB400001EB8000704770
:102C20009804002010B588B004461C216846FDF7C2
:102C300021FB69462046FDF733FF30B19DF80900BE
:102C400018B19DED000A08B010BD9FED010AFAE72A
:102C50000000000070B50C46144900221346CC66F3
:102C6000C1F8000002EBC20505EB450501EB850547
:102C7000A5F86A30521CD2B2022AF3D30C4A137060
:102C8000D3710A4B4FF6FF62143B1A8018B1012230
:102C9000091DFEF78DFE002C07D02046BDE87040D0
:102CA000024901227031FEF783BE70BD98040020F6
:102CB0000800002010B50446FFF772F958B120460D
:102CC000FFF7F2F848B1012809D0022809D00328FB
:102CD00009D006A010BD07A010BD09A010BD09A015
:102CE00010BD0BA010BD0BA010BD00004641554CFF
:102CF0005400000044495341424C45440000000048
:102D00004F4646005354415254494E47000000007C
:102D10004F4E000053544F5050494E4700000000A2
:102D200008B102A070470248704700004F4E0000F3
:102D30001037000870B5144D0446298801F090FA48
:102D4000A878A070E878E070A988201D01F088FAC2
:102D5000A879A0712989E01D01F082FAA87A607231
:102D6000A98904F10A0001F07BFA2046FFF7A8FECA
:102D7000014604F10C00044601F076FA204601F009
:102D80006DF8286170BD00008404002008B102A025
:102D9000704703A07047000050524553534544000C
:102DA00052454C4541534544000000002DE9FF4188
:102DB0000746FFF729FF040018D02068B0B172B6AB
:102DC000B4F86A0062B64FF6FF650BE0B4F8051080
:102DD000A94209D072B601212046FDF734FEB4F8AD
:102DE0006A0062B60228F1D2102803D2012004B092
:102DF000BDE8F08172B61022611D6846FDF713FA36
:102E000010212046FDF71FFE62B66846FFF758FE08
:102E1000054603A8804601F021F8854201D0022032
:102E2000E5E70126254D012F22D19DF8020000275C
:102E3000C5281DD19DF80300A52819D1BDF80400AF
:102E4000A0F5B441A53913D19DF806003C280FD157
:102E5000BDF80700A0F543413C3909D19DF80900B0
:102E6000962805D1BDF80A00A0F5D24196391FD0A9
:102E7000134CBDF8000020809DF80200A0709DF862
:102E80000300E070BDF80400A0809DF80600A0716A
:102E9000BDF8070020819DF80900A072BDF80A0066
:102EA000A081404600F0DAFF20612E7000209EE7EE
:102EB000EE71204600F0F0F82F7097E70800002030
:102EC0007004002070B5FEF759F8324C0546607862
:102ED00018B90220FDF792FC78B16069281AFA2827
:102EE00004D36561A07980F00100A071A279BDE8EA
:102EF00070401046014600F019BCE07998B10020FE
:102F000020716071A07102460146012000F00EFCA4
:102F100000210846FDF75AFD00210220FDF756FD6D
:102F2000012108462CE06069281AC82808D3656189
:102F300060790321401CB0FBF1F201FB12006071CB
:102F40006079022820D0002201281FD00021F8B18A
:102F50005FF0000000F0EAFB2069281AB0F57A7FE4
:102F600004D32561207980F00100207100210846FA
:102F7000FDF72CFD00210120FDF728FD217902201D
:102F8000BDE87040FDF722BD0122DDE70121DEE74B
:102F90000120DFE70800002070B502202DED028B34
:102FA000FDF72CFC0646FDF7E9FF394C0546002EDF
:102FB000A0784DD0012690B905210020FDF7B8FA80
:102FC000E560E67000210120FDF700FD00210220F0
:102FD000FDF7FCFC01210020FDF7F8FCA6700021A4
:102FE0000320FDF787FC00210220FDF783FC002170
:102FF0000846FDF7C5FB00210120FDF7C1FB9FED51
:10300000258A0120B0EE480AFFF774F8B0EE480AAE
:103010000020FFF76FF800210120FDF743FA6670EA
:10302000E068281A962830D3E560E07880F0010146
:10303000E1700020FDF7CAFC00210120FDF7C6FC6D
:10304000BDEC028B0021BDE870400220FDF7BEBC44
:1030500000281AD00025A570E57029462846FDF7FE
:1030600041FA02210120FDF763FA00210846FDF72D
:10307000ADFC00210220FDF7A9FC01210846FDF767
:10308000A5FC6078012800D16570BDEC028B70BD95
:1030900008000020000000007FB504004FF0000091
:1030A000009001900290039036D0206898B34FF6BC
:1030B000FF61684601F0D4F8CA208DF80200A5200F
:1030C0008DF8030045F6A5216D4601A801F0C8F86A
:1030D0003C208DF806004CF23C31E81D01F0C0F8B0
:1030E00096208DF8090046F696110DF10A0001F0C0
:1030F000B7F86846FFF7E4FC014603A801F0B4F80E
:10310000102000F079FB0346102269462068FEF784
:103110007EFC04B070BDFFE70120FAE710B598B05F
:1031200004461C2110A8FDF7A5F82046FFF76CFD0A
:1031300004002BD0206848B300F06CFB10A8FFF708
:10314000F9FD40216846FDF795F8684600F04EFD10
:10315000F0B19DED050A14A801F07EF80020FFF7FC
:1031600061FD15A801F078F80120FFF75BFD16A8B6
:1031700001F072F81C2000F03FFB246803461C227B
:1031800010A92046FEF743FC18B010BD0120FBE754
:103190009FED010ADFE70000000000002DE9F04F7D
:1031A000FDB00120FEF790FEFFF70EFD0120FEF7B7
:1031B00067FEFFF709FD402140A8FDF75BF81C21E1
:1031C00050A8FDF757F81C2157A8FDF753F8002029
:1031D000FFF71AFD06007CD030680028FBD00020E5
:1031E000FEF7DEFE10B10020FEF7EAFF0120FEF739
:1031F000E7FF0120FEF768FEFFF7E6FC80460120AE
:10320000FEF73EFEFFF7E0FC074640A800F0EEFCAC
:103210000A9050A90020FDF743FC57A90120FDF7B3
:103220003FFC9DED450AFFF7A5FC09909DED460A80
:10323000FFF7A0FC0B909DED480AFFF79BFC0C905C
:103240009DED470AFFF796FC21909DED490AFFF797
:10325000A7FC02909DED4B0AFFF78CFC00909DEDC2
:103260004A0AFFF787FC01909DED4C0AFFF782FCAC
:10327000054600F0CFFA0220FDF76AFBFFF750FD8C
:1032800004900120FDF764FBFFF74AFD0590002044
:10329000FDF75EFBFFF744FD83460120FDF778F85C
:1032A000FFF73EFD81460020FDF772F8FFF738FD7D
:1032B00082460220FDF768F9FFF72CFC12900220ED
:1032C000FDF75AF9FFF72CFD13900120FDF75CF98B
:1032D00000E001E2FFF71EFC14900120FDF74CF91D
:1032E000FFF71EFD17900020FDF74EF9FFF712FCC7
:1032F00018900020FDF740F9FFF712FD19902846BD
:10330000FFF71BFB6424B0FBF4F104FB11000890F1
:103310002846FFF712FBB0FBF4F016900198FFF778
:103320000CFBB0FBF4F104FB11001E900198FFF7B9
:1033300004FBB0FBF4F01C900098FFF7FEFAB0FB22
:10334000F4F104FB110015900098FFF7F6FAB0FBBA
:10335000F4F000900298FFF7F0FA0A25B0FBF5F1BF
:1033600005FB110001900298FFF7E7FAB0FBF5F0BA
:1033700002902198FFF7E1FAB0FBF4F104FB110091
:1033800003902198FFF7D9FAB0FBF4F01B900C984A
:10339000FFF7D3FAB0FBF4F104FB11001F900C9877
:1033A000FFF7CBFAB0FBF4F01A900B98FFF7C5FAD1
:1033B000B0FBF4F104FB11000D900B98FFF7BDFA80
:1033C000B0FBF4F00E900998FFF7B7FAB0FBF4F1F8
:1033D00004FB11000F900998FFF7AFFAB0FBF4F06F
:1033E00010909DF8360100F08BFA1D909DF8350184
:1033F000FFF796FC20909DF8340100F081FA0990C7
:103400000A98FFF78DFC0A909DED580AFFF7C8FB5C
:10341000FFF793FAB0FBF5F105FB11000B909DED62
:10342000580AFFF7BDFBFFF788FAB0FBF5F00C90E8
:103430009DED570AFFF79EFBFFF77FFAB0FBF4F113
:1034400004FB110076909DED570AFFF793FBFFF701
:1034500074FAB0FBF4F079909DF8650100F050FA31
:1034600078909DF86401FFF75BFC77909DF866010A
:10347000FFF73CFB73909DED510AFFF791FBFFF7BF
:103480005CFAB0FBF5F105FB110072909DED510A5D
:10349000FFF786FBFFF751FAB0FBF5F075909DED55
:1034A000500AFFF767FBFFF748FAB0FBF4F104FBA3
:1034B000110074909DED500AFFF75CFBFFF73DFA99
:1034C000B0FBF4F070909DF8490100F019FA6B9090
:1034D0009DF84801FFF724FC6C909DF84A01FFF726
:1034E00005FB012571902846FEF75AFD68B1284674
:1034F000FEF778FD58B12846FEF762FD48B1284630
:10350000FEF784FD38B17EA006E07EA004E080A036
:1035100002E080A000E081A06F900120FEF790FC07
:103520006E90B7FBF4F004FB10706D90B7FBF4F0F5
:103530006A900120FEF794FCB8FBF4F1699004FB5B
:1035400011806890B8FBF4F067900120FDF7D6F881
:10355000FFF7E6FB05460020FDF7D0F8FFF7E0FB9C
:1035600065900020FFF7A6FB64900120FFF7A2FB07
:1035700063900220FDF760F9FFF7D2FB6290032011
:10358000FDF75AF9FFF7CCFB61900220FDF736F901
:10359000FFF7FCFB60900120FDF730F9FFF7F6FB29
:1035A00080460020FDF72AF9FFF7F0FB04465D484E
:1035B000807800B10120FFF7B3FB0346DDE9040189
:1035C000CDE93E10CDE93C9B0DF1480C9CE886000E
:1035D000CDF8ECA03897CDE939210DF15C0C089FAE
:1035E0009CE80700CDE93610CDE93472DDE9150716
:1035F0000DF1C00C1E9A1C998CE887009DE887008D
:10360000CDE92E10CDE92C7221981B99002801DA02
:103610002D2700E02B271A980DF1A0091F9A2B9156
:1036200089E885000DF1340999E88700CDE9261075
:10363000CDE924720DF184091D98BDF80221BDF871
:10364000001189E807000DF1240999E88700CDE908
:103650001E10CDE91C720DF5EC7999E88700CDE9D3
:103660001A70CDE918120DF5E47999E88700CDE9D3
:103670001601CDE91427DDE97070DDE96B210DF14C
:10368000400989E88700DDE96E270DF130096A9865
:103690006D9989E887000DF5CE7999E807000DF15D
:1036A0002409089589E807000DF5C47999E82700F1
:1036B0000DF1100989E82700DDE96012CDE9021259
:1036C0001848CDE9004840F26C75174A2946EC309D
:1036D00000F0D2FD041E03DC01207DB0BDE8F08FB8
:1036E000AC4201D340F26B74A0B200F085F80D49F2
:1036F0000346A2B2EC313068FEF789F9EDE700002D
:103700004F4B000044495341424C454400000000E7
:103710004F46460057414954000000004641554C71
:1037200054000000840400209047000870B514463F
:103730000A4E0D4680F0010208213046FDF719FCC3
:1037400085F0010210213046FDF713FC84F00102E0
:103750003046BDE870408021FDF70BBC000C0240F4
:1037600010B5044600210320FDF7C4F80021022013
:10377000FDF7C0F80120FEF735FC10B10120FEF77F
:1037800057FC0020FEF72EFC10B10020FEF750FC85
:1037900000210846FCF7F4FF00210120FCF7F0FFB0
:1037A00000210846FCF77EFF00210120FCF77AFF8C
:1037B00000210220FCF776FF1CB900210846FCF727
:1037C00071FE00210120FCF76DFEFDF7B1F8094CF8
:1037D000012208212046FDF7CCFB012210212046C2
:1037E000FDF7C7FB20460122BDE810408021FDF710
:1037F000C0BB0000000C024042F2107148434FF47D
:10380000E131B0FBF1F04FF49671C830884200D23C
:10381000084670472DE9F04100252E462C4603202E
:10382000FDF70AF800B110250220FDF705F808B1F0
:1038300045F001050020FCF79FFE08B145F020058A
:103840000120FCF799FE08B145F040050220FCF785
:1038500093FE08B145F080050120FEF7C3FB00B1DF
:1038600010260020FCF74AFF08B146F001060020B0
:10387000FCF78EFD08B146F002060120FCF788FD3A
:1038800008B146F004060020FEF7ACFB00B110249E
:103890000120FCF733FF08B144F001040020FDF7DC
:1038A00057F808B144F002040120FDF751F808B1BF
:1038B00044F004040220FDF74BF808B144F008047A
:1038C0000D4F4FF6FF6038800C484178B970FD709D
:1038D0000089B880BE710120FEF7F6FAFFF774F98F
:1038E0003881BC720020FEF7EFFAFFF76DF9B8815E
:1038F00000203861BDE8F081840400200800002029
:1039000008B10248704701481C3070470037000872
:103910007047000000EE100A9FED051AF8EE400A0D
:1039200080EE810ADFED030A20EE200A70470000D6
:1039300000F07F4533335340F0B50C462DED028B3C
:1039400091B0064640216846FCF794FCDFED738A8F
:10395000B0EE688A16B10CB1C82C04D9042011B09D
:10396000BDEC028BF0BD4FF6FF70ADF800000020FB
:10397000ADF802009FED6A0A8DED030A9FED690A1A
:1039800005468DED040A684F0E9443E036F81500A5
:10399000BDF80010884201D2ADF8000036F81500DD
:1039A000BDF80210884201D9ADF8020036F81500C2
:1039B000052803D940F6FA71884202D301208DF818
:1039C000350036F81500FFF7A5FFDFED580A70EE59
:1039D000600A9FED571A80EE810ADFED560A07EB69
:1039E000850020EE200A80ED000ADDED030A78EE66
:1039F000808AF4EEC00AF1EE10FA01DD8DED030AC3
:103A0000DDED040AF4EEC00AF1EE10FA01D28DEDFC
:103A1000040A6D1CA542B9D3BDF80000FFF77AFF78
:103A20008DED010ABDF80200FFF774FF8DED020A6B
:103A300000EE104A0020B8EE400AC8EE800ACDED34
:103A4000070A9DED040A9DED031A30EE410AB6EE19
:103A5000001A8DED050A20EE010A8DED060A08E038
:103A600007EB8001401C91ED000A30EE600A00EE89
:103A7000008AA042F4D300EE104AF8EE400A88EE25
:103A8000200A00F023FC8DED080A9DED070A21466F
:103A9000254800F055F88DED090A0598B0F17C5FD6
:103AA00001DB012400E000248DF834408CB1DFED0F
:103AB000220A30EE600AB5EEC00AF1EE10FA01D229
:103AC000B1EE400A10EE101A1C4A914201DC0125A9
:103AD00000E000258DF836509DED060A40228DED60
:103AE0000A0A0B9010489DED080A40388DED0C0A2B
:103AF000C06B6946401C0F900B484038FCF793FBA5
:103B00009DF8350008B1072029E714B11DB1002048
:103B100025E7062023E7082021E700000000000039
:103B200000247449002474C9541000201F85DB3F11
:103B3000398E633D3333933F0060EA4600803B4556
:103B4000F0EE402A9FED270A10B5B0EE401A002390
:103B5000F0EE410A002843D0022941D3D0ED001AEB
:103B6000012271EEE21A2AE000EB8204F5EEC01A9F
:103B700094ED002A32EE622AF1EE10FA1CD2B5EE74
:103B8000C02AF1EE10FA17DB32EE613AF0EE400A8D
:103B9000B5EEC03AF1EE10FA03D0F1EE611AC1EEC3
:103BA000830A541E01EE904AF8EE611A71EEA00AE3
:103BB0000BB9B0EE601A5B1CF0EE421A521C8A423E
:103BC000D2D3022B0CD35B1E00EE103ADFED061AA7
:103BD00070EEC10AB8EE400A60EE211A81EEA00A2A
:103BE00010BD000000000000007C124910B5002844
:103BF0000AD072B640220549FCF715FB62B60348AD
:103C0000C06B002800D0012010BD0000141000205F
:103C100010B586B014216846FCF72CFB4048002400
:103C2000016841F001010160016801F001010591A5
:103C30003B4914310A6842F480720A60096801F451
:103C400080710591016841F480010160006800F411
:103C50008000059032481030016841F00101016098
:103C60000068694600F001000590402000900320A4
:103C7000CDE901042B48FDF77FF82B48016821F0BE
:103C8000010101600168C907FCD1274A3D21083ABA
:103C90001160254A254908321160121D244911601E
:103CA000214A4FF4C871121D1160224901601E485B
:103CB000143004601D484C38D0F8041321F440310E
:103CC000C0F80413D0F8041341F48031C0F8041391
:103CD00044608460C46206214163016921F4E011FB
:103CE0000161016941F4802101611349816040044F
:103CF000046084628B21C162416821F070014160DF
:103D0000416841F0200141600121416100223820D9
:103D1000FDF7A2F93820FDF791F906B010BD0000BB
:103D20003038024000000240106402404C20014044
:103D3000F40C00201E2D02000103001610B5012412
:103D4000FFF766FF4FF448710748FCF793FA4021EC
:103D50000648FCF78FFA0648002101704170817017
:103D6000C470084610BD0000F40C002014100020A0
:103D700098010020014901204870704798010020F7
:103D80000149012008707047980100200D48C17852
:103D900041B1817841B172B60278002132B101702F
:103DA000094807E00120704703207047427832B18C
:103DB0004170064862B618B1C821FFF7BDBD62B6B2
:103DC0000020704798010020F40C0020840E002091
:103DD00070B51D4CE07818B1A07818B1022070BD04
:103DE000012070BD4FF448711848FCF743FA402198
:103DF0001748FCF73FFA00212170617015480268EE
:103E000022F0010202600268D207FCD1114B4FF48C
:103E1000C8721B1D1A600F4B3D22083B1A600E4AE8
:103E20001160936840F201352B439360026842F0C1
:103E300001020260A8074162016841F001010160CE
:103E40000120A070002070BD98010020F40C00201B
:103E50001410002010640240002001408278018884
:103E6000C07862F31F4141EA0060704710B5FDF76A
:103E70007BF8012800D0002010BDFDF77AB810B5FE
:103E8000FDF772F8012800D0002010BDFDF771B8D1
:103E90007047FDF779B8000030B593B0302168461F
:103EA000FCF7E8F914210CA8FCF7E4F91E480025FA
:103EB000016841F080510160006800F0805011906D
:103EC0001A48016841F4804101600068022400F44E
:103ED0008040119001200090000401908001CDE904
:103EE0000640192008904FF4A870CDE90904072076
:103EF0000B906846FDF7CEF908B172B6FEE70CA943
:103F00000F2081E831004FF4A0500F904FF4805003
:103F1000109005210CA8FDF7D1F8002801D072B649
:103F2000FEE713B030BD0000403802400070004092
:103F30000248016841F470010160704788ED00E0BB
:103F40000148FDF785BB00009803002010B5806B89
:103F50000021C185FDF769FB10BD01680C3151E8F6
:103F6000002F22F4907241E80023002BF5D1016864
:103F7000143151E8002F22F0010241E80023002B08
:103F8000F5D1016B012909D101680C3151E8002FED
:103F900022F0100241E80023002BF5D1202180F807
:103FA000421000210163704708B590F842102229A1
:103FB00001D0022008BD82684FF480539A4201D19B
:103FC000016921B1816A9A421BD04AB10AE00268B4
:103FD000816A5268C2F308020A80816A891C08E07B
:103FE000026972B10268526802F07F020A70816A47
:103FF000491C8162C18D491E0904090CC18503D089
:104000001BE002685268F1E70168CA6822F02002EA
:10401000CA600168CA6822F48072CA6001684A698D
:1040200022F001024A61202180F842100021416300
:10403000026B012A03D0FDF7C9FC002008BD016313
:1040400001680C3151E8002F22F0100241E80023F2
:10405000002BF5D101680A68D20602D50A684968C2
:104060000091818DFDF7E0FAE7E7000070B50446A6
:1040700000680169E26821F440511143016121693E
:10408000A068E26908436169114308432168CA686E
:1040900049F20C639A430243CA6020684169A269ED
:1040A00021F440711143416131492068884202D0B6
:1040B0003049884202D1FDF7ABF801E0FDF798F8EE
:1040C000E2690023192164253226B2F5004F6268A7
:1040D00028D0A0FB0101930F9200FCF773F8014672
:1040E000B0FBF5F06FF01802504301EB800006EBD7
:1040F0000010B0FBF5F000F0F002B1FBF5F002EBC0
:104100000012B1FBF5F06FF01803584301EB80008B
:1041100006EB0010B0FBF5F000F00F002168104432
:10412000886070BDA0FB010192185B41FCF74AF862
:104130000146B0FBF5F00201B1FBF5F06FF018039A
:10414000584301EB800006EBC000B0FBF5F000F037
:10415000F80002EB4002B1FBF5F0584301EB8000A0
:1041600006EBC000B0FBF5F000F00700D6E700005A
:10417000001001400014014081628285C285002147
:104180004164222180F84210016921B10168CA68A6
:1041900042F48072CA6001684A6942F001024A61D1
:1041A0000068C16841F02001C160002070472DE91E
:1041B000F843984617460D460446089E24E0701CB6
:1041C00022D0FCF7DBFEA0EB0800B0421AD8CEB13B
:1041D0002068C168490717D5802D15D0402D13D010
:1041E0000168C94309070FD40168002540680090A1
:1041F0002046FFF7B2FE0820606484F8405001209A
:10420000BDE8F8830320FBE72068006835EA00007A
:1042100004D00020B842D2D00020F1E70120F9E715
:104220000148FDF715BA0000280400200148FDF7F9
:104230000FBA0000500300200148FDF709BA000042
:10424000E0030020FEE710B5FCF78EFE012800D049
:10425000002010BDFCF78DBE10EE101A00F004B85F
:104260000170090A4170704701700A0A42700A0C15
:104270008270090EC17070470FB47CB50C0009AD97
:1042800001D0611E00E00021CDE90001064B6A4625
:104290002946089800F04CF8002C02D0009A002122
:1042A00011707CBC5DF814FB734600080907090E09
:1042B000002804DB00F1E02080F80014704700F0D3
:1042C0000F0000F1E02080F8141D704710B52DEDAF
:1042D000028BB1EEC08A18EE100A20F00040C0F147
:1042E000FF40C00F0AD010EE100A20F00040C0F1CD
:1042F000FF40C00F04BF012000F014F8B0EE480AE0
:10430000BDEC028B10BD02E008C8121F08C1002AD4
:10431000FAD170477047002001E001C1121F002A46
:10432000FBD1704701490860704700004C03002032
:104330002DE9FF4F8BB088460546002606E025286C
:104340000BD0DDE90D1290476D1C761C28780028F3
:10435000F5D10FB03046BDE8F08F0024A146A2464B
:104360000122AE4900E0044315F8013F203B02FA68
:1043700003F00842F7D128782A2810D06FF02F02D6
:104380002878A0F13001092915D809EB890102EB41
:10439000410144F0020400EB01096D1CF0E758F8FC
:1043A000041B5FEA010903D544F40054C9F1000974
:1043B00044F002046D1C28782E2817D115F8010F3F
:1043C00044F004042A280ED06FF02F022878A0F1C0
:1043D000300109290AD80AEB8A0102EB410100EBFE
:1043E000010A6D1CF2E758F804AB6D1C28786C28A4
:1043F0000FD006DC4C2817D068280DD06A2814D1BD
:1044000004E0742810D07A280FD10DE044F4001491
:104410000AE044F4801401E044F4401469788142D5
:1044200002D104F580146D1C6D1C2878692865D0B4
:1044300006DC00288DD0632827D0642806D15DE0F3
:104440006E2808D073282AD0752877D0DDE90D12A0
:104450009047761CE0E0C4F30250022809D00328FC
:104460000DD0D8F8001004280DD00E6008F1040813
:10447000D2E0D8F80010F217C1E90062F6E7D8F8E8
:1044800000100E80F2E70E70F0E718F8041B8DF8AC
:10449000001000208DF80100EB46012003E058F8E1
:1044A00004BB4FF0FF3061074FF0000701D40AE072
:1044B0007F1C57450DDA8742FADB1BF807100029ED
:1044C000F6D106E07F1C8742FCDB1BF807100029B1
:1044D000F8D1DDE90D23A9EB07008146214600F064
:1044E000B1F83044C61904E0DDE90D121BF8010BE8
:1044F00090477F1EF8D22146484688E058F8040BC2
:10450000C4F302514FF00A0B032900D100B2042971
:1045100000D140B2002802DA40422D2102E02105FC
:1045200005D52B218DF82410012104E006E0E107D8
:1045300010D02021F6E708AF089113E058F8040BDB
:10454000C4F302514FF00A0B032900D180B20429B1
:1045500000D1C0B20021EEE75946FBF796FE30319C
:1045600007F8011D0028F7D1ADEB070000F1200B83
:10457000600702D524F4803401E04FF0010ADA45E7
:1045800002DDAAEB0B0000E00020824600EB0B01ED
:1045900008980144A9EB01000A90E00306D4DDE984
:1045A0000D2321460A9800F04DF806444FF000090B
:1045B00008E009A911F80900DDE90D12904709F199
:1045C0000109761C08998945F3DBE0030CD5DDE988
:1045D0000D2321460A9800F035F8064404E0DDE991
:1045E0000D1230209047761CBAF10001AAF1010AA1
:1045F000F5DC05E0DDE90D1217F8010B9047761C9C
:10460000BBF10001ABF1010BF4DC0A982146DDE9B6
:104610000D2300F005F806446D1C97E609280100FB
:104620002DE9F041044600251E461746880404D4AF
:1046300005E039462020B0476D1C641EF9D5284698
:10464000BDE8F0812DE9F041044600251E46904664
:10465000C80301D5302700E02027880404D505E0F1
:1046600041463846B0476D1C641EF9D52846BDE862
:10467000F0814A68002A06D00A68531C0B6010704B
:104680004868401E48607047FCF786FCFFF704FC52
:10469000FDF77EFEFDF704FFFDF71EFFFDF7B6FEFA
:1046A000FDF764FF304C012208212046FCF761FC35
:1046B000012210212046FCF75CFC012280212046CB
:1046C000FCF757FCFCF7D0F8FCF732F8FCF776F86B
:1046D000FBF764FFFBF76AFEFCF750F9FDF708FCF7
:1046E000FFF72CFBFFF774FBFCF7F2F91F4920489A
:1046F000FEF7B0FAFCF742FC1E4C2060FCF73EFCD3
:104700004FF496754FF47A7660600020FEF74EFB0A
:1047100008B9FEF717F90120FEF748FB08B9FEF7C4
:1047200011F9FEF739FCFEF7CDFBFBF76BFEFFF747
:104730002DFBFCF707FAFCF721FC6168401AA84240
:1047400005D30120FEF7EAFCFCF718FC6060FCF7DB
:1047500015FC2168401AB042D7D3FEF71FFDFCF7C5
:104760000DFC2060D1E70000000C0240E0030020B7
:1047700028040020000000200000000000000000CD
:1047800001020304060708090000000001020304F7
:104790003D3D3D3D3D3D3D3D3D3D3D3D3D3D3D3D49
:1047A00020506C61736D6120436F6E74726F6C6C1E
:1047B000657220537461747573203D3D3D3D3D3DF0
:1047C0003D3D3D3D3D3D3D3D3D3D0D0A3D3D3D5366
:1047D000797374656D3D3D3D0D0A2020456D657210
:1047E00067656E63792053746F70203A2025730DCE
:1047F0000A2020496E697469616C204C696D697486
:1048000020203A20257320204D6178204C696D6965
:10481000742020202020203A2025732020452D536D
:10482000746F7020496E7075743A2025730D0A3DBF
:104830003D3D506F7765723D3D3D0D0A2020506C27
:1048400061736D61202020203A2025732020566F4F
:104850006C746167652020203A2025730D0A3D3D68
:104860003D47617320506174683D3D3D0D0A202035
:1048700048655F4D4643203A202573202041725FF2
:104880004D4643203A2025730D0A202048652056C6
:10489000616C76653A202573202041722056616C48
:1048A00076653A2025730D0A2020486520546172F0
:1048B00067657420203A2025752E25303275204CEE
:1048C0002F6D696E2020486520444143204F757448
:1048D000203A202575200D0A202048652046656570
:1048E000646261636B3A2025752E25303275204C49
:1048F0002F6D696E202048652041444320496E7029
:104900007574203A2025750D0A20204865205472C0
:1049100061636B696E673A2025730D0A3D3D3D4723
:1049200061732050726573737572653D3D3D0D0A6C
:10493000202048652050726573737572653A202592
:104940007320204F6E6C696E653A202573202056C7
:10495000616C69643A202573202056616C75653D51
:10496000256C752E2530326C75202052656D61697D
:104970006E3D256C752E2530316C7525250D0A2070
:104980002041722050726573737572653A202573E9
:1049900020204F6E6C696E653A2025732020566189
:1049A0006C69643A202573202056616C75653D253D
:1049B0006C752E2530326C75202052656D61696EE4
:1049C0003D256C752E2530316C7525250D0A3D3D34
:1049D0003D506C61736D6120466565646261636B17
:1049E0003D3D3D0D0A202052656164792020202044
:1049F00020203A20257320205369676E616C3A208D
:104A000025732020436C69703A202573202046725C
:104A100065713A2025730D0A2020414443205261DC
:104A200077202020203A206D696E3D2575206D612C
:104A3000783D25750D0A2020466565646261636BCB
:104A40002020203A205670703D256C752E2530327E
:104A50006C75205620205065616B3D256C752E25A8
:104A600030326C7520562020524D533D256C752EEA
:104A70002530326C75205620204F66667365743D74
:104A80002563256C752E2530326C7520560D0A2055
:104A9000204672657175656E637920203A20256C19
:104AA000752E2530316C7520487A0D0A2020485625
:104AB000204F757470757420203A205670703D2513
:104AC0006C752E2530326C75206B56202050656138
:104AD0006B3D256C752E2530326C75206B56202071
:104AE000524D533D256C752E2530326C75206B561A
:104AF0000D0A3D3D3D417578696C696172793D3DB6
:104B00003D0D0A20204374726C2041757820466167
:104B10006E203A2025732C20257525250D0A20208E
:104B20004465766963652046616E2020203A202521
:104B3000732C20257525250D0A20204374726C20C6
:104B40004D61696E2046616E3A2025732C202575D3
:104B500025250D0A202042757A7A657220312020A1
:104B60002020203A202573202042757A7A65722011
:104B700032202020203A2025730D0A20205247425F
:104B8000204C45442020202020203A20523D2573EF
:104B900020473D257320593D25730D0A3D3D3D3D80
:104BA0003D3D3D3D3D3D3D3D3D3D3D3D3D3D3D3D35
:104BB0003D3D3D3D3D3D3D3D3D3D3D3D3D3D3D3D25
:104BC0003D3D3D3D3D3D3D3D3D3D3D3D3D3D3D3D15
:104BD0003D3D3D3D3D3D0D0A0000000048655F4DF7
:104BE0004643000041725F4D464300000C4C0008F4
:104BF000000000205003000018030008884C000843
:104C0000500300202814000016430008012813E474
:104C10004BA2086320416BA040088733335340FF09
:104C20000F3918591C3930334001091124AA3F2487
:104C300039611508024004120123E80352645A80C6
:104C400024690811000C223FCDCC4C3DCDCCCC3D8D
:104C5000D0071ADCB8297C610A2FF0B80A2102B803
:104C60005A09B80A1908B80D2A9A99993EB801103C
:104C7000135003422049CCC95C01B00AC598CC2925
:084C8000C082105324F400006F
:040000050800018965
:00000001FF
