:020000040800F2
:10000000F0050020450100088D1E0008A51B000812
:10001000891E00080B0B0008ED2B000800000000F3
:100020000000000000000000000000007122000835
:100030009516000800000000E51F00085125000883
:100040005F0100085F0100085F0100085F01000810
:100050005F0100085F0100085F010008CD1800087B
:100060000D190008111900084D1900085F0100085A
:100070005F0100085F0100085F0100085F010008E0
:100080005F0100085F0100083B0800085F010008ED
:100090005F0100085F0100085F010008891900087E
:1000A0005F0100085F0100085F0100085F010008B0
:1000B0005F010008C92500085F0100085F01000812
:1000C0005F0100085F0100085F0100085F01000890
:1000D0005F010008DD2800083D2900085F010008D5
:1000E0005F0100085F0100085F0100085F01000870
:1000F0005F0100085F0100085F0100085F01000860
:100100005F0100085F0100085F0100085F0100084F
:100110005F0100085F0100085F0100085F0100083F
:100120005F0100085F0100085F0100085F0100082F
:10013000DFF80CD000F03EFB00480047793600089D
:10014000F00500200648804706480047FEE7FEE726
:10015000FEE7FEE7FEE7FEE7FEE7FEE7FEE7FEE777
:10016000692500083101000810B5431A934209D2ED
:100170008318881803E010F8011D03F8011D521EB2
:10018000F9D210BD40EA01039B0703D009E008C97A
:10019000121F08C0042AFAD203E011F8013B00F84C
:1001A000013B521EF9D210BD30B480EA010202F0C8
:1001B000004530F0004221F0004013D090B1C30D53
:1001C000D40DC2F31601C0F31600E41A41F4000185
:1001D00040F400027D34914201D3641C00E04900E8
:1001E000002C02DA30BC002070474FF400000023DE
:1001F000914201D3891A034340084FEA4101F7D1E4
:1002000051B1914202D14FF0004105E002D24FF0CE
:10021000010101E06FF0010103EBC450284430BC40
:1002200000F05CB92DE9FE4F81EA030404F00044BC
:1002300021F0004100944FF0000B23F0004350EAFE
:1002400001045ED052EA03045BD0C3F30A54C1F345
:100250000A552C44A4F2F3340194A0FB0254C1F3D8
:10026000130141F48011C3F3130343F4801301FB22
:10027000024400FB034E840A970A44EA815447EA89
:100280008357A4FB076802958D0A05FB07854FEA93
:10029000932C04FB0C542705029D4FEA065847EAAD
:1002A0001637B5EB08056EEB070C870E920E47EA82
:1002B000811742EA8312A7FB0201B6EB0B0164EB44
:1002C00000042B0D43EA0C335E1844EB1C50DA4655
:1002D0005146E7FB0201C5F313044FEA0B3343EA2F
:1002E00014534FEA0432019C43EA0603A4F10C04C0
:1002F0000294009CCDE900B400F036F903B0BDE8EB
:10030000F08F00200146F9E72DE9F04D81EA030462
:1003100004F0004B21F0004514464FF0000A23F092
:10032000004150EA050220D054EA01021DD0C5F375
:100330000A570246C5F31303C1F31300C1F30A566B
:1003400040F4801543F48013A7EB0608101BD64633
:1003500008F2FD3873EB050002D308F1010801E053
:1003600092185B41B8F1000F03DA00200146BDE8A6
:10037000F08D00204FF48011064684460EE0171BD6
:1003800073EB050705D3121B63EB050306434CEA29
:10039000010C49084FEA300092185B4150EA01070E
:1003A000EDD152EA030012D082EA040083EA05018B
:1003B000084305D0101BAB4106D20122002306E002
:1003C00000224FF0004302E06FF0010253101AEBDD
:1003D00006004CEB085110EB0A0041EB0B01BDE8A5
:1003E000F04D00F0B2B896230022114600F07FB81D
:1003F00000F0004230F000400AD0C10D01F56071FC
:10040000C0F3160042EA0151C20840071143704789
:1004100000200146704701F0004330B421F0004154
:1004200050EA010206D00A0DA2F56072C1F3130171
:10043000002A02DC30BC00207047440F44EAC104AB
:10044000C100E01830BC00EBC25000F047B830B536
:100450000B46014600202022012409E021FA02F582
:100460009D4205D303FA02F5491B04FA02F528441C
:10047000151EA2F10102F1DC30BD2DE9F05F054649
:10048000002092469B4688460646814640241BE053
:10049000284641464746224600F0ADF953465A46A3
:1004A000C01A914110D311461846224600F094F923
:1004B0002D1A67EB01084F4622460120002100F06B
:1004C0008BF917EB00094E41201EA4F10104DFDC7B
:1004D000484631462A464346BDE8F09F0029A8BF5A
:1004E0007047401C490008BF20F00100704710B45D
:1004F000B0FA80FC00FA0CF050EA010404BF10BC12
:10050000704749B1CCF1200421FA04F411FA0CF13E
:1005100018BF012121430843A3EB0C01CB1D4FEA77
:1005200000614FEA102042BF002010BC704700EB72
:10053000C35010440029A4BF10BC7047401C4900A0
:1005400008BF20F0010010BC704710B5141E73F1F5
:10055000000408DA401C41F1000192185B411A4383
:1005600001D120F0010010BD2DE9F04D92469B46CF
:1005700011B1B1FA81F202E0B0FA80F22032904675
:1005800000F02AF904460F4640EA0A0041EA0B014E
:1005900053465A46084313D0114653EA010019D076
:1005A000C8F14002504600F026F905460E46504676
:1005B0005946424600F010F9084305D0012004E0F6
:1005C00020463946BDE8F08D0020054346EAE07636
:1005D0002C4337430A986305E40AA0EB0800002285
:1005E000FD0A44EA47540A3002D500200146E9E7F3
:1005F000010510196941DDE9084500196941BDE8A7
:10060000F04DA2E72DE9FE4F804681EA0300C00FBE
:100610000C46009021F0004123F00045B8EB0200A9
:10062000A94105D24046214690461C460B4602464B
:1006300023F00040104347D0270DC7F30A00C3F34F
:100640000A510290401A019040286BDAC3F313005C
:1006500040F4801B0098924620B10023D2EB030A9D
:1006600063EB0B0B01985946C0F14002504600F075
:10067000B3F806460D4650465946019A00F0CBF8AD
:1006800010EB08006141002487EA115284EAE77305
:100690001A4340D0009A62B3019A012A4FEA0752E6
:1006A00015DC001B61EB02014FF0004202EA075229
:1006B000CDE90042001C41F5801132462B46FFF780
:1006C00053FF03B0BDE8F08F40462146F9E7001B19
:1006D00061EB0201001C41F5801300185B412018FA
:1006E000A2F5001747EB030140EAD570B6196D413A
:1006F00011E06D084FEA360645EAC0754FEA075229
:10070000001B61EB0201001C41F5801149084FEA12
:1007100030000019514132462B4603B0BDE8F04F7E
:10072000FFF713BF0098012240000023D0EB020224
:1007300063EBE073009821464FEAE074B8EB0000E9
:1007400061EB0401E9E783F000435BE781F00041DE
:1007500058E7C1F30A52C1F3130140F2FF3341F4E9
:1007600080119A4202DA00200146704740F233437A
:100770009A42A2F2334202DC524200F03CB800F04E
:100780002BB8000030B5041E71F1000404DB4FF0FB
:100790000044404264EB0101141E73F1000405DBC8
:1007A0001C464FF00043524263EB0403994208BFDA
:1007B000904230BD064C074D06E0E06840F0010372
:1007C00094E8070098471034AC42F6D3FFF7B4FC26
:1007D0005038000870380008202A04DB203A00FA5C
:1007E00002F1002070479140C2F1200320FA03F388
:1007F000194390407047202A04DB203A21FA02F086
:100800000021704721FA02F3D040C2F1200291404A
:10081000084319467047202A06DBCB17203A41FAD5
:1008200002F043EAE07306E041FA02F3D040C2F17D
:1008300020029140084319467047704721B18268F1
:1008400042F00102826003E0826822F001028260CD
:100850007047000000B591B00121084601F0D0FBBF
:100860003C4800F01DFD3C4806903C4807900020A5
:1008700008900320099000200A9080200B904000EF
:100880000C9080000D9020200E9000020F90002010
:10089000109006A92F4800F0A9FD01212D4800F075
:1008A000F3FC4FF4004001F09FFB0121480201F0EE
:1008B000C7FB0020019001208DF808008DF8090089
:1008C0004FF4602003900020049003208DF8140062
:1008D00001A921484C3800F079F8052301220C21A8
:1008E0001D484C3800F0A0F8052302220B211A48BD
:1008F0004C3800F099F8052303220D2116484C3896
:1009000000F092F8012114484C3800F029F8012138
:1009100011484C38FFF792FF0F484C3800F0E0F8D0
:1009200000BF0D484C3800F047F80028F9D10A48BC
:100930004C3800F0E5F800BF07484C3800F032F8BA
:100940000028F9D1012104484C3800F0CEF811B04C
:1009500000BD0000080002404C2401403600002089
:1009600021B1826842F48072826003E0826822F4DE
:10097000807282607047000008B50121102001F0EC
:100980005FFB0E20ADF8000000208DF8030003206F
:100990008DF802006946024801F012F808BD000017
:1009A00000100140014600208A6802F004020AB1EA
:1009B000012000E000207047014600208A6802F014
:1009C00008020AB1012000E00020704730B502465D
:1009D0000020002350680F4C20400D790C6844EA39
:1009E00005242043506090680B4C2040D1E902540C
:1009F0002C434D7944EA450420439060D06A20F4AA
:100A000070000C7C641EE4B2234340EA0350D062C1
:100A100030BD0000FFFEF0FFFDF7F1FF10B5FFF75E
:100A2000ABFFFFF717FF10BDF0B504460D460020E1
:100A30000021092D11DDE068A5F10A0606EB460745
:100A4000072606FA07F18843A5F10A0606EB4606D3
:100A500003FA06F10843E0600CE0206905EB450766
:100A6000072606FA07F1884305EB450603FA06F167
:100A700008432061072A0FDA606B561E06EB8607D3
:100A80001F2606FA07F18843561E06EB860605FA6E
:100A900006F10843606322E00D2A0FDA206BD61FAF
:100AA00006EB86071F2606FA07F18843D61F06EBDA
:100AB000860605FA06F10843206310E0E06AA2F119
:100AC0000D0606EB86071F2606FA07F18843A2F1FA
:100AD0000D0606EB860605FA06F10843E062F0BD56
:100AE000816841F008018160704721B1826842F459
:100AF000A002826003E0826822F4A0028260704754
:100B0000816841F004018160704700BFFEE700008A
:100B100010B504A002F0C6F81021074800F0EDFF60
:100B200010BD0000EBB2C6F8C1F7C1BFBCC62DB9FD
:100B3000D8A3A10A000000000010014010B506A0D3
:100B400002F0B0F80121084800F0D7FF1021074853
:100B500000F0D3FF10BD0000EBB2C6F8C4A3BFE99C
:100B60002DB9D8A3A10A0000000C014000100140DB
:100B700010B504A002F096F80121074800F0BDFF6F
:100B800010BD0000EBB2C6F8B5E7B4C5B7A72DB9E4
:100B9000D8A3A10A00000000000C014010B509A074
:100BA00002F080F84FF480510B4800F0A6FF0421BA
:100BB0000A4800F0A2FF002001F089FC002001F0AB
:100BC0007FFC10BDB9D8B1D5CBF9D3D0C6F8CCE5F0
:100BD000B9A9D3A6A3A10A00001C0140000C014042
:100BE00010B504A002F05EF80421074800F085FF6C
:100BF00010BD0000BAA4C6F8C1F7C1BFBCC62DB96C
:100C0000D8A3A10A00000000000C014010B506A006
:100C100002F048F84FF48051074800F06EFF0421BD
:100C2000064800F06AFF10BDBAA4C6F8C4A3BFE925
:100C30002DB9D8A3A10A0000001C0140000C0140FE
:100C400010B504A002F02EF84FF48051064800F0D1
:100C500054FF10BDBAA4C6F8B5E7B4C5B7A72DB9FF
:100C6000D8A3A10A00000000001C014010B510210B
:100C7000014800F042FF10BD0008014010B54021BE
:100C8000014800F03AFF10BD0008014010B506A071
:100C900002F008F840210A4800F02FFF1021084810
:100CA00000F02BFF10BD0000B5C8C0EBD7D32FB5A7
:100CB000F7D1B9C6F7B5E7D4B42DB9D8A3A10A00C6
:100CC000000801402DE9F04F8BB08046B8F1000FCD
:100CD00003D100200BB0BDE8F08F7DA001F0E2FF52
:100CE0008B48807800B100BF8AA001F0DBFF884804
:100CF000C0784FEA10198648C07800F00F0AB9F1A1
:100D0000000F05DD01F066F987A001F0CBFF04E0DC
:100D1000FFF7B4FF88A001F0C5FFBAF1000F05DDB1
:100D200001F050F989A001F0BDFF04E0FFF79EFF3C
:100D30008AA001F0B7FF7648807904097448807969
:100D400000F00F05002C01DC002D4EDD002C05DD30
:100D500001F00CF986A001F0A5FF04E0FFF740FFC9
:100D600087A001F09FFF002D05DD01F015F989A096
:100D700001F098FF04E0FFF763FF89A001F092FF04
:100D800063490889FFF72FFB4FF08B410090FFF775
:100D90000BFA0190FFF72CFB4FF06632844BCDE944
:100DA0000201FFF73FFA0022824BCDE90401FFF771
:100DB000ABFA0022804BCDE90601FFF733FACDE90B
:100DC0000801FFF728FB83465846FFF711FBCDE9E2
:100DD00008014F48018979A0DDE9082301F062FF8D
:100DE0004B49088901F073FB07E0FFF70FFF002074
:100DF00001F06DFB78A001F055FF4548807A0609A7
:100E00004348807A00F00F07002E01DC002F4EDDF2
:100E1000002E05DD01F07EF873A001F043FF04E031
:100E2000FFF776FE74A001F03DFF002F05DD01F015
:100E300087F876A001F036FF04E0FFF799FE76A070
:100E400001F030FF32498889FFF7CDFA4FF08B412E
:100E50000090FFF7A9F90190FFF7CAFA4FF0663248
:100E6000534BCDE90201FFF7DDF90022514BCDE9EB
:100E70000401FFF749FA00226B4BCDE90601FFF7A9
:100E8000D1F9CDE90801FFF7C6FA83465846FFF7C6
:100E9000AFFACDE908011E48818964A0DDE9082385
:100EA00001F000FF1A49888901F00AFB07E0FFF70B
:100EB00045FE002001F004FB63A001F0F3FE0020DA
:100EC0006549087065A001F0EDFE012002E7000011
:100ED0003D3D3D3D3D3D3D3D3D3D3D3D3D3D3D3D42
:100EE0003D3D3D3D3D3D3D3D446174615061636B21
:100EF0006574204465616C3D3D3D3D3D3D3D3D3D5E
:100F00003D3D3D3D3D3D3D3D3D3D3D3D3D3D0A0081
:100F1000DC010020506172616D2053657474696E4C
:100F200067A3A10A00000000506C61736D615265F7
:100F30006C61792D4F4E0A00506C61736D61526582
:100F40006C61792D4F46460A00000000566F6C4DCB
:100F50006F6452656C61792D4F4E0A00566F6C4D6F
:100F60006F6452656C61792D4F46460A000000009F
:100F70004865466C6F774D657465722D4F4E0A005B
:100F80004865466C6F774D657465722D4F46460A0D
:100F900000000000486556616C76652D4F4E0A00D2
:100FA000486556616C76652D4F46460A0000000084
:100FB00066660A400000144000003E404865466CEA
:100FC0006F773A2564207C7C20252E3266204C2FBA
:100FD0006D696E0A000000004865466C6F772066F8
:100FE0006F726269640A00004172466C6F774D65EA
:100FF0007465722D4F4E0A004172466C6F774D65D5
:101000007465722D4F46460A000000004172566119
:101010006C76652D4F4E0A00417256616C76652DD7
:101020004F46460A00000000000024404172466C12
:101030006F773A2564207C7C20252E3266204C2F49
:101040006D696E0A000000004172466C6F77206681
:101050006F726269640A0000840000203D3D3D3DDE
:101060003D3D3D3D3D3D3D3D3D3D3D3D3D3D3D3DB0
:101070003D3D3D3D446174615061636B6574204446
:101080006F776E3D3D3D3D3D3D3D3D3D3D3D3D3DF3
:101090003D3D3D3D3D3D3D3D0A00000000B587B072
:1010A0000121880300F0CCFF0121042000F0C8FFDB
:1010B00018208DF81B004FF40070ADF818000320C5
:1010C0008DF81A0006A9204800F07AFC04208DF85B
:1010D00017000002ADF8140003208DF8160005A9D2
:1010E000194800F06DFC4FF4E13001900020ADF89C
:1010F00010000C20ADF80E000020ADF80C00ADF88B
:101100000A00ADF8080001A9104801F0BFFC4FF437
:10111000A06000F0F5FE25208DF8000001208DF87C
:1011200001008DF802008DF80300684600F0B0FE63
:10113000012240F22551054801F082FC01210348BB
:1011400001F03BFC07B000BD000801400038014041
:1011500039B1084A1268012383401A43054B1A60CB
:1011600006E0044A1268012383409A43014B1A6047
:1011700070470000007400401FB50121480700F0CF
:101180004FFF00200090019002200390694600204C
:1011900000F03AF86946102000F036F801210020EE
:1011A000FFF7D6FF01211020FFF7D2FF00210846EC
:1011B00000F04AF80021084600F056F81FBD000074
:1011C00008B5014600200090054800902C2000EB57
:1011D0009100009A104400900098006880B208BD09
:1011E0000074004008B50121042000F029FF3020E0
:1011F000ADF8000000208DF803006946014800F0BA
:10120000DFFB08BD0008014030B5002200230A4C76
:10121000226840F6FE748440A243D1E900452C4385
:101220008D682C43CD6844EA050303FA00F4224399
:10123000014C226030BD00000074004010B5FFF783
:10124000D1FFFFF799FF10BD08B500220092054AB3
:10125000009200F10802009B1A440092009A11606B
:1012600008BD00000074004008B500220092054A45
:10127000009200F11402009B1A440092009A11603F
:1012800008BD00000074004021B1026842F0010274
:10129000026004E002684FF6FE731A400260704775
:1012A00001684FF6FE72114001600021016041604B
:1012B0008160C1604B49884208D14A490839496870
:1012C00041F00F01474A083A51608AE0454914311C
:1012D000884208D143490839496841F0F001414A40
:1012E000083A51607DE03F492831884208D13D49A4
:1012F0000839496841F470613A4A083A516070E02F
:1013000038493C31884208D136490839496841F4A6
:101310007041344A083A516063E0324950318842A2
:1013200008D130490839496841F470212D4A083AFA
:10133000516056E02B496431884208D12949083967
:10134000496841F47001274A083A516049E025494B
:101350007831884208D123490839496841F07061E1
:10136000204A083A51603CE01F49884206D1011FDB
:10137000096841F00F01021F116032E01A4914316F
:10138000884208D11849091F096841F0F001164A3E
:10139000121F116025E014492831884208D11249F2
:1013A000091F096841F470610F4A121F116018E0AB
:1013B0000D493C31884208D10B49091F096841F4A5
:1013C0007041094A121F11600BE0074950318842F1
:1013D00007D10549091F096841F47021024A121F0B
:1013E00011607047080002400804024010B5002256
:1013F000026847F6F0739A430C6A8B6823430C69C2
:1014000023434C6923438C692343CC6923434C6AAF
:1014100023438C6A23431A430260CB6843600B6802
:1014200083604B68C36010BD70B50446002C2DD09E
:101430006F4801886FA001F035FC72A001F032FC0A
:10144000002505E07448415D74A001F02BFC6D1C83
:10145000674800888542F5DB72A001F023FC7248E2
:10146000007860B171A001F01DFC002505E0744812
:10147000415D6AA001F016FC6D1C102DF7DB69A020
:1014800001F010FC4FF4FA6002F086F8584800882A
:10149000022871DB604800785F49497840EA012002
:1014A0004FF6FF6188427DD101206649087050489F
:1014B00000881028EDDB0025002003E05649095C78
:1014C0000D44401C0B28F9DD5348C07B00065249EF
:1014D000897B40EA01405049497B40EA01204E495E
:1014E000097B40EA0106B54248D101204E49087007
:1014F0003246294654A001F0D5FB102246495048F7
:10150000FEF732FE5422444910314348FEF72CFEC8
:101510003748008810383649088049488078504953
:1015200088704748C078C87045480079444949796F
:1015300040EA01204A4988804148807988714048C2
:10154000C0793F49097A40EA0120454908813C4871
:10155000407A88723A48807A3949C97A40EA01204B
:101560003F4988810CB100F097F801203D4908708F
:1015700000202D49087014E039E013E000202A49CA
:1015800008703246294638A001F08CFB54222249CB
:1015900010312148FEF7E8FD15480088103814493D
:1015A000088024E037A001F07DFB18E000202549E9
:1015B00008700F480088401E0D49088063221649B4
:1015C000491C481EFEF7D0FD13480078124949789F
:1015D00040EA01204FF6FF61884200D103E0044851
:1015E00000880228E2DA00BF01201649087070BDA9
:1015F00086000020B5B1C7B0CBF7D2FDD6B5A3BAEF
:1016000025640A00B5B1C7B0BDD3CAD5BBBAB3E52E
:10161000C7F83A20000000009C0000202530325816
:10162000200000000A0000008B000020B5B1C7B008
:10163000C3FCC1EEBBBAB3E5C7F83A200000000016
:10164000640100208A000020CDA8B9FDBACDD0A346
:10165000D1E9A3BA253032587C253032780A00000F
:10166000DC01002084000020CEB4CDA8B9FDBACDA5
:10167000D0A3D1E9A3BA253032587C253032780A7C
:1016800000000000CEB4D5D2B5BDB0FCCDB7A3A14B
:101690000D0A0000704700002DE9F04F89B042A00C
:1016A00001F000FB5048817850A001F0FBFA4E4851
:1016B000C078000908904C48C07800F00F000790EF
:1016C0004EA0DDE9072101F0EDFA4748818853A0DB
:1016D00001F0E8FA44488079000906904248807990
:1016E00000F00F00059051A0DDE9052101F0DAFAC4
:1016F0003D490889FEF777FE4FF08B410190FEF7D8
:1017000053FD0290FEF774FE82464FF066324E4B58
:10171000FEF788FD804600224C4BFEF7F5FD06469D
:1017200000224B4BFEF77EFD04460B462E480189F6
:10173000224648A001F0B6FA2B48807A00090490AE
:101740002948807A00F00F00039048A0DDE90321CA
:1017500001F0A8FA24498889FEF745FE4FF08B4135
:101760000190FEF721FD0290FEF742FE80464FF009
:101770006632354BFEF756FD06460022334BFEF728
:10178000C3FD04460022324BFEF74CFD82460B4659
:101790001548818952463CA001F084FA02A001F06C
:1017A00081FA09B0BDE8F08F3D3D3D3D3D3D3D3DF9
:1017B0003D3D3D3D3D3D3D3D3D3D3D3D3D3D3D3D59
:1017C000446174615061636B65742053686F773D49
:1017D0003D3D3D3D3D3D3D3D3D3D3D3D3D3D3D3D39
:1017E0003D3D3D3D0A000000DC010020456D657275
:1017F000672D73746F703A25640A0000506C617332
:101800006D6152656C61793A25642C20566F6C4D80
:101810006F6452656C61793A25640A00566F6C4FAB
:10182000757456616C75653A25640A004865466CA6
:101830006F774D657465723A25642C204865566152
:101840006C76653A25640A0066660A40000014401A
:10185000000024404865466C6F773A25647C7C25FF
:101860002E3266204C2F6D696E0A00004172466C64
:101870006F774D657465723A25642C20417256610C
:101880006C76653A25640A004172466C6F773A259A
:10189000647C7C252E3266204C2F6D696E0A000018
:1018A00008B50121082000F0CBFB0220ADF80000B4
:1018B00010208DF8030003208DF8020069460248CD
:1018C00000F07EF808BD0000000C014010B50220B9
:1018D00000F062F838B104A001F0E4F900F08CFAED
:1018E000022000F053F810BDBDF8C8EBB5BD20C113
:1018F000F7C1BFC4A3CABD20D6D0B6CFB7FECEF1C4
:10190000BAAFCAFDC0EFC3E60A000000704700008E
:1019100010B5082000F040F838B104A001F0C2F979
:1019200000F06AFA082000F031F810BDBDF8C8EBED
:10193000B5BDB0B4BCFC31D6D0B6CFB7FECEF1BA8F
:10194000AFCAFDC0EFC3E60A0000000010B51020CA
:1019500000F022F838B104A001F0A4F900F004FA74
:10196000102000F013F810BDBDF8C8EBB5BDB0B441
:10197000BCFC30D6D0B6CFB7FECEF1BAAFCAFDC0F0
:10198000EFC3E60A0000000070470000014908604C
:101990007047000014040140014600200022074B5C
:1019A0001B6803EA0102054B14331B680B4013B19B
:1019B0000AB1012000E0002070470000000401404F
:1019C0002DE9F041024600250026002000230024D6
:1019D000002791F803C00CF00F0591F803C00CF03C
:1019E000100CBCF1000F03D091F802C04CEA0505C1
:1019F00091F800C0BCF1000F31D0146800202BE03A
:101A00004FF0010C0CFA00F3B1F800C00CEA030629
:101A10009E4220D183004FF00F0C0CFA03F7BC4319
:101A200005FA03FC4CEA040491F803C0BCF1280F4A
:101A300006D14FF0010C0CFA00FCC2F814C00AE009
:101A400091F803C0BCF1480F05D14FF0010C0CFA1E
:101A500000FCC2F810C0401C0828D1D31460B1F8B3
:101A600000C0BCF1FF0F34DD546800202EE000F10F
:101A7000080C4FF0010808FA0CF3B1F800C00CEAAA
:101A800003069E4221D183004FF00F0C0CFA03F79E
:101A9000BC4305FA03FC4CEA040491F803C0BCF112
:101AA000280F05D100F1080C08FA0CF8C2F81480D0
:101AB00091F803C0BCF1480F07D100F1080C4FF0BA
:101AC000010808FA0CF8C2F81080401C0828CED390
:101AD0005460BDE8F0810246002093680B400BB1D2
:101AE000012000E00020704702460020D3680B4030
:101AF0000BB1012000E00020704741617047016197
:101B00007047000010B510210348FFF7EDFF0128D2
:101B100000D110BD0020FCE70010014010B50121EC
:101B20000348FFF7E1FF012800D110BD0020FCE7CA
:101B3000000C014010B504210348FFF7D5FF012830
:101B400000D110BD0020FCE7000C014010B54FF49F
:101B500080510448FFF7C8FF012800D110BD0020C4
:101B6000FCE70000001C014010B510210348FFF7FE
:101B7000BBFF012800D110BD0020FCE70008014098
:101B800010B540210348FFF7AFFF012800D110BD79
:101B90000020FCE700080140014800787047000081
:101BA0005800002000BFFEE710B50221124800F0E7
:101BB0003BF830B101280CD0022809D00A2817D1EF
:101BC00012E00EA001F06EF800200F49087010E03E
:101BD0000FE00EA001F066F801200B490870FFF736
:101BE00055F8FEF7DBFF04E00BA001F05BF800E026
:101BF00000BF00BF10BD000000140140656D5374AC
:101C00006F702D4F4E0A000058000020656D537410
:101C10006F702D4F46460A00656D53746F702D65C9
:101C200072726F720A00000070B506460D46444895
:101C3000304418B1B0F5406F14D105E0022D01D148
:101C4000404C00BF00BF12E0B5F5007F05D0B5F5F0
:101C5000806F05D13B4C241D02E03A4C083400BF94
:101C600000BF04E038A001F01DF8032070BD00BFE4
:101C700029463046FFF72FFF6070207820B10128F9
:101C800027D0022857D13CE0607810B101281DD13F
:101C90000EE00020E070A078401CA070A078192809
:101CA00004DB0020A07002202070DFE70320DDE7C6
:101CB000E078401CE070E078032805DB012020700C
:101CC0000020E0700120D1E70320CFE700BF00BF74
:101CD00000BF607810B1012810D10BE0A078401C43
:101CE000A070A078032803DB00202070A070BDE75F
:101CF0000320BBE70020A0700320B7E700BF00BFB0
:101D000000BF607810B1012812D103E00020E0701C
:101D10000220ABE7E078401CE070E078032805DBA8
:101D2000012020700020E07001209FE703209DE744
:101D300000BF00BF00BF00BF00BF0A2096E7000041
:101D400000ECFEBF4C0000206572726F723A206B8F
:101D5000657920706F727420646F206E6F742065D7
:101D6000786973740D0A000010B520210748FFF749
:101D7000BBFE0446214606A000F094FF012C02D1D0
:101D800000F032F801E000F027F810BD000C01402F
:101D90006C65642D4430B5B1C7B0D7B4CCACCEAA15
:101DA0003A25640A0000000008B50121082000F06F
:101DB00047F92020ADF8000010208DF80300032023
:101DC0008DF8020069460348FFF7FAFD00F004F8B9
:101DD00008BD0000000C014010B520210148FFF7AC
:101DE0008EFE10BD000C014010B520210148FFF708
:101DF00084FE10BD000C014010B520210748FFF7FC
:101E000073FE0446214606A000F04CFF012C02D1CF
:101E100000F032F801E000F027F810BD0018014092
:101E20006C65642D4431B5B1C7B0D7B4CCACCEAA83
:101E30003A25640A0000000008B50121402000F0A6
:101E4000FFF82020ADF8000010208DF803000320DB
:101E50008DF8020069460348FFF7B2FD00F004F870
:101E600008BD00000018014010B520210148FFF70F
:101E700046FE10BD0018014010B520210148FFF7B3
:101E80003CFE10BD0018014000BFFEE77047000097
:101E900070B5002100230F22C47804B3154C2468C8
:101EA00004F4E064C4F5E064210AC1F10403CA400B
:101EB000447804FA03F184781440214309010E4C5C
:101EC0000678A155047804F01F050124AC4005787C
:101ED0006D11AD0005F1E025C5F8004109E0047879
:101EE00004F01F050124AC40044D0678761145F836
:101EF000264070BD0CED00E000E400E080E100E071
:101F000002490143024A1160704700000000FA05CF
:101F10000CED00E010B504A000F0C4FE102107484D
:101F2000FFF7EDFD10BD0000EBB2C6F8C1F7C1BF71
:101F3000BCC62DBFAAA3A10A0000000000100140EA
:101F400010B504A000F0AEFE01210748FFF7D7FD51
:101F500010BD0000EBB2C6F8B5E7B4C5B7A72DBFFA
:101F6000AAA3A10A00000000000C014010B504A0C3
:101F700000F098FE04210748FFF7C1FD10BD0000E6
:101F8000BAA4C6F8C1F7C1BFBCC62DBFAAA3A10A97
:101F900000000000000C014010B504A000F082FE1B
:101FA0004FF480510648FFF7AAFD10BDBAA4C6F849
:101FB000B5E7B4C5B7A72DBFAAA3A10A00000000CA
:101FC000001C014010B510210148FFF798FD10BD1D
:101FD0000008014010B540210148FFF790FD10BDF9
:101FE000000801407047000001460020034A506885
:101FF00020F4404008435060704700000010024049
:1020000029B1064A52690243044B5A6104E0034A6B
:1020100052698243014B5A61704700000010024030
:1020200029B1064AD2690243044BDA6104E0034A4B
:10203000D2698243014BDA61704700000010024010
:1020400029B1064A92690243044B9A6104E0034AAB
:1020500092698243014B9A61704700000010024070
:1020600030B500210022002400232D4D6D6805F0BD
:102070000C0121B1042905D0082923D105E0294DFF
:10208000056022E0274D05601FE0254D6D6805F4D1
:102090007012234D6D6805F48034022505EB9242E1
:1020A0001CB9214D554305600BE01D4D6D6805F4CD
:1020B00000351DB11C4D5543056002E0194D5543D7
:1020C000056002E0174D056000BF00BF144D6D684C
:1020D00005F0F0010909154D6B5C0568DD404560B0
:1020E0000F4D6D6805F4E061090A104D6B5C4568A1
:1020F000DD4085600A4D6D6805F46051C90A0B4DDD
:102100006B5C4568DD40C560054D6D6805F4404178
:10211000890B074D6B5CC568B5FBF3F5056130BDF8
:102120000010024000127A0000093D00000000206B
:102130001000002008B501210420FFF781FF0121D4
:102140008020FFF77DFF01210820FFF779FF0121A3
:102150001020FFF775FF5020ADF8000010208DF81B
:10216000030003208DF8020069461E48FFF728FC93
:102170004FF48050ADF8000010208DF803000320CC
:102180008DF8020069461848FFF71AFC0520ADF8E3
:10219000000010208DF8030003208DF8020069462E
:1021A0001248FFF70DFC1020ADF800008DF8030079
:1021B00003208DF8020069460D48FFF701FC50210D
:1021C0000848FFF79AFC4FF480510748FFF795FC49
:1021D00005210648FFF791FC10210548FFF78DFC0B
:1021E00008BD000000080140001C0140000C014037
:1021F0000010014010B54FF4E0710348FFF77DFC7B
:1022000002A000F04FFD10BD00100140C8FDC9AB99
:102210004C4544B9D8B1D50A0000000008B50121E9
:102220001020FFF70DFF4FF4E070ADF80000102014
:102230008DF8030003208DF8020069460548FFF77A
:10224000BFFB002004490870FFF7D4FF03A000F093
:1022500029FD08BD0010014034000020C8FDC9ABB5
:102260004C4544B3F5CABCBBAFCDEAB3C90A0000C4
:10227000704700002DE9F0474FF6FF60464908809F
:10228000FFF78AFC18B1F8204349887003E04348FF
:10229000807841498870FFF773FC012801D1102034
:1022A00000E000200446FFF75FFC012800D100E0B9
:1022B0000020054644EA05003749C87038480088C0
:1022C0008880FFF737FC012801D1102000E00020B2
:1022D0000646FFF73BFC012800D100E0002007463E
:1022E00046EA07002C4988712D4840880881FFF78D
:1022F00009FC012801D1102000E000208046FFF7F2
:102300000DFC012800D100E00020814648EA0900C8
:102310002149887222488088888108460088897807
:1023200008441D49C97808441B49898808441A494A
:10233000897908441849098908441749897A084461
:1023400015498989084414490861088800F024FC6B
:102350001149887800F03AFC0F49C87800F036FC43
:102360000D49888800F018FC0B49887900F02EFC94
:102370000949088900F010FC0749887A00F026FC1A
:102380000549888900F008FC0349086900F00DFC44
:102390000120BDE8F0870000C8010020DC0100201A
:1023A0003600002010B5044609490C700846007834
:1023B00020B902210748FFF7A0FB07E00448007896
:1023C000012803D102210348FFF799FB10BD00004B
:1023D00064000020000C014010B500F001F810BDB1
:1023E0000CB50020019000903348006840F4803024
:1023F0003149086000BF3048006800F400300090A8
:102400000198401C0190009818B90198B0F5A06F90
:10241000F1D12948006800F4003010B1012000908B
:1024200001E0002000900098012843D12348006873
:1024300040F01000214908600846006820F00300C1
:1024400008600846006840F0020008601A484068CA
:10245000194948600846406848600846406840F4AA
:10246000806048600846406820F47C104860084658
:10247000406840F4E81048600846006840F080700A
:10248000086000BF0C48006800F000700028F9D018
:102490000948406820F00300074948600846406842
:1024A00040F00200486000BF0348406800F00C00A4
:1024B0000828F9D10CBD00000010024000200240A5
:1024C00010B5044621460020FEF7CEFE10BD10B523
:1024D000044621460020FEF7B7FE10BD10B5482186
:1024E0004FF49C7000F0CEF8FFF7DAF9024800785C
:1024F000FFF758FF10BD00006400002030B5014612
:10250000B1F1807F01D3012030BD21F07F40401E1A
:102510004FF0E022506150170F22002807DA13070E
:102520001D0E094B00F00F04241F1D5503E0130777
:102530001C0E064B1C5400BF00204FF0E02290619F
:10254000072010610020DFE718ED00E000E400E064
:102550000448006820B103480068401E0149086033
:10256000704700003C00002010B51348006840F0A0
:1025700001001149086008464068104908400E49AA
:102580004860084600680E4908400B490860084644
:10259000006820F4802008600846406820F4FE00AF
:1025A00048604FF41F008860FFF716FF4FF000608F
:1025B0000449086010BD0000001002400000FFF850
:1025C000FFFFF6FE08ED00E010B516A000F06AFB74
:1025D0000121194800F0BBF8002821D0012116483C
:1025E00000F0A6F8154802681548016815A000F02B
:1025F00059FB13480068401C1149086008460068F0
:102600000E49096888420BDB00210B4800F093F863
:1026100000200B4908601248016812A000F042FB3C
:1026200010BD0000BDF8C8EBB5BDB6A8CAB1C6F76D
:10263000D6D0B6CF210A0000000400406800002078
:102640003000002070756C73655F636F756E742069
:102650003D2025642C416E676C653D25640A0000B1
:102660006C000020D7AAB6AFCDEAB3C9A3ACB5F7CA
:10267000D1B9C6F7CAE4B3F6D6B5D3A6CEAA3A25E1
:10268000640A000030B589B004460D4601210820D7
:10269000FFF7D6FC01210220FFF7C2FC0120ADF8B4
:1026A000200018208DF8230003208DF8220008A9AF
:1026B0001D48FFF785F9ADF81840681E80B2ADF8E7
:1026C00014000020ADF81A00ADF8160005A917484F
:1026D00000F0B2F87020ADF804000220ADF80C0054
:1026E0000120ADF8060001A9104800F04BF80821C0
:1026F0000E4800F097F8012211460C4800F038F817
:102700001D208DF8000000208DF801008DF80200DA
:1027100001208DF803006846FFF7BAFB002103484B
:1027200000F009F809B030BD000C01400004004081
:10273000CA430282704721B1028842F0010202803E
:1027400004E002884FF6FE731A400280704730B5ED
:102750000246002000230024158A05EA010395891A
:1027600005EA010413B10CB1012000E0002030BDE6
:102770001AB183890B43838102E083898B43838170
:102780007047000070B5002400220023058C4FF62E
:10279000FF6635400584028C8388848B4FF68F75E5
:1027A0002C404FF6FC752C400D882C434FF6FF55FE
:1027B0002A400D894FF6FF7606EA05252A434D8803
:1027C00006EA05252A43154DA84202D0144DA84219
:1027D0001DD14FF2FF752A404D894FF6FF7606EA6C
:1027E00005252A434FF6FF352A408D8806EA052540
:1027F0002A434EF6FF752B404DF6FF752B408D8911
:1028000006EA05152B43CD8906EA05152B4383807F
:102810008483CD888587028470BD0000002C014030
:10282000003401400A460021818B4FF6F7731940AE
:102830001143818370470000002202881D4B98429B
:102840000ED01D4B98420BD0B0F1804F08D01B4BDF
:10285000984205D01A4B984202D01A4B984204D1A4
:102860004FF68F731A404B881A43174B984207D084
:10287000164B984204D04FF6FF431A40CB881A43B8
:1028800002808B8883850B8803850A4B98420BD086
:10289000094B984208D00E4B984205D00D4B9842F8
:1028A00002D00D4B984201D10B7A0386012383821B
:1028B00070470000002C014000340140000400403B
:1028C00000080040000C00400010004000140040D0
:1028D00000400140004401400048014010B540F272
:1028E0002551134800F082F808B3114800F03AF976
:1028F000C4B210480088632808DA0E4801880088AE
:10290000401C0C4A10800C4844540AE0002009493D
:102910000880084601880088401C064A1080064846
:10292000445440F22551024800F038F800BF10BD71
:1029300000380140860000209C00002010B540F2C5
:102940002551134800F052F808B3114800F00AF975
:10295000C4B210480088632808DA0E48018800884D
:10296000401C0C4A10800C4844540AE000200949DD
:102970000880084601880088401C064A10800648E6
:10298000445440F22551024800F008F800BF10BD41
:1029900000440040860000209C00002010B500226A
:1029A000002340F66A14A14200D100BF0A1201249C
:1029B0009440A3B2DC43048010BD21B1828942F46B
:1029C0000052828104E082894DF6FF731A408281B1
:1029D000704702460020B1F5007F00D100BF138888
:1029E0000B400BB1012000E00020704770B502469B
:1029F000002400230025002040F66A16B14200D1D1
:102A000000BFC1F3421501F01F03012606FA03F3CC
:102A1000012D02D19689334006E0022D02D1168A9B
:102A2000334001E0968A33400C12012606FA04F482
:102A30001688344013B10CB1012000E0002070BDB5
:102A4000F0B50346002400260025002040F66A1752
:102A5000B94200D100BF1846C1F3421401F01F066D
:102A6000012707FA06F5012C01D10C3004E0022CF5
:102A700001D1103000E014301AB107682F4307600D
:102A800002E00768AF430760F0BD00002DE9F047A2
:102A900086B005460E460024A24600BFA146002788
:102AA000B08900B100BF2F462C8A4CF6FF7004405D
:102AB000F08804432C82AC894EF6F3100440B088B1
:102AC00031890843718908430443AC81AC8A4FF6CD
:102AD000FF400440B0890443AC8201A8FFF7C0FA6C
:102AE0001F48874202D1DDF810A001E0DDF80CA0FC
:102AF000A88900F4004040B10AEBCA0000EB0A10BC
:102B000031684900B0FBF1F807E00AEBCA0000EBBE
:102B10000A1031688900B0FBF1F86420B8FBF0F0CE
:102B200004012009642101FB1089A88900F40040F8
:102B300040B1322000EBC900B0FBF1F000F007001B
:102B4000044308E0322000EB09106421B0FBF1F0EF
:102B500000F00F0004432C8106B0BDE8F0870000B0
:102B60000038014001468888C0F308007047C1F36F
:102B7000080282807047000010B5044621460548CF
:102B8000FFF7F5FF00BF40210248FFF722FF0028B2
:102B9000F9D010BD0038014010B50446E0B2FFF78F
:102BA000EBFF200AFFF7E8FF10BD10B50446E0B2C6
:102BB000FFF7E2FFC4F30720FFF7DEFFC4F307408F
:102BC000FFF7DAFF200EFFF7D7FF10BD10B5044660
:102BD0002046FFF7D1FF00BF40210348FFF7F9FE71
:102BE0000028F9D010BD00000038014000BFFEE70A
:102BF00000B587B001214804FFF712FA0121042033
:102C0000FFF71EFA18208DF81B000420ADF81800FD
:102C100003208DF81A0006A92048FEF7D1FE0420F3
:102C20008DF817000820ADF8140003208DF8160069
:102C300005A91A48FEF7C4FE4FF4E13001900020C8
:102C4000ADF810000C20ADF80E000020ADF80C001F
:102C5000ADF80A00ADF8080001A91148FFF716FF0A
:102C60004FF4A060FFF74CF926208DF800000220F9
:102C70008DF8010001208DF802008DF803006846F0
:102C8000FFF706F9012240F225510548FFF7D8FE6B
:102C900001210348FFF791FE07B000BD0008014085
:102CA000004400400FB4054B10B503A9044A029834
:102CB00000F0DAF810BC5DF814FB0000BD35000828
:102CC0008C00002002E008C8121F08C1002AFAD1B7
:102CD00070477047002001E001C1121F002AFBD19C
:102CE000704700002DE9FF5F82B00021DDE904306C
:102CF000020DDDF840B0034318D044F61050A2F2A4
:102D0000FF3242431514119801281FD0A5EB0B0088
:102D1000401C5FEA000A4FF000064E4FDFF8389182
:102D2000B046504615D5CAF1000413E011980124AD
:102D30004AA3012801D16FEA0B010298119AC0E958
:102D40000031C0E9024206B0BDE8F09FCBF10000BF
:102D5000DFE704460021404A491842EB0450CDE920
:102D6000001012E0E00707D032463B464046494695
:102D7000FDF758FA8046894632463B4610461946CA
:102D8000FDF750FA06460F466410002CEAD1DDE943
:102D90000401DDE90023BAF1000F06DAFDF742FA7B
:102DA00042464B46FDF73EFA05E0FDF7ADFA4246D6
:102DB0004B46FDF7A9FA04460E460022284BFDF7C4
:102DC000E1FC03D84FF0FF30014607E00022254B1D
:102DD00020463146FDF716FCFDF7BBFC102409E048
:102DE000002C0ADB0A220023FDF747FB039B30324D
:102DF0001A55641E50EA0102F2D1641C039AC4F110
:102E000011031444119A012A03D0012208430DD161
:102E10000AE0084304D000204FF0110B119072E734
:102E2000A3EB0B056D1E0DE05B4504DD4FF00002CA
:102E300005F1010504E003DA4FF00002A5F10105F8
:102E4000002AECD002981199C0E90231C0E900458E
:102E500079E70000000014400000F03F300000005F
:102E60000000F0430000E03F2DE9FF4F95B09B4686
:102E70008946064600250FE2252877D100242746FB
:102E8000F84A0121059400E0044316F8013F203B75
:102E900001FA03F01042F7D130782A2811D06FF0F0
:102EA0002F033078A0F13002092A16D8059A44F091
:102EB000020402EB820203EB42021044761C0590EE
:102EC000EFE759F8042B0592002A03DA504244F444
:102ED0000054059044F00204761C30782E2816D158
:102EE00016F8010F44F004042A280DD06FF02F02C9
:102EF0003078A0F13003092B09D807EB870302EBE8
:102F00004303C718761CF3E759F8047B761C307826
:102F10006C280FD006DC4C2817D068280DD06A2802
:102F200014D104E0742810D07A280FD10DE044F4B5
:102F300000140AE044F4801401E044F44014727870
:102F4000824202D104F58014761C761C3078662803
:102F50000BD013DC582877D009DC002875D0452821
:102F6000F6D04628F4D047281AD19DE118E063280E
:102F700035D0642879D0652812D195E1702873D0B6
:102F800008DC6728F1D069286FD06E280DD06F2833
:102F900006D1B5E073282CD0752875D0782874D068
:102FA0005A46179990476D1C75E1C4F302500228E8
:102FB00009D003280DD0D9F8001004280DD00D60D9
:102FC00009F1040967E1D9F80010EA17C1E90052D4
:102FD000F6E7D9F800100D80F2E70D70F0E719F868
:102FE000041B8DF8001000208DF80100EA46012036
:102FF00003E059F804AB4FF0FF3061074FF00001D8
:1030000002D40DE008F101018846B9420FDA80458B
:10301000F8DB1AF808100029F4D108E008F10101E2
:1030200088468142FADB1AF808100029F6D1059883
:103030005B46A0EB080721463846179A00F094FA41
:10304000284400EB080507E04DE029E10DE01AF8FF
:10305000010B5A4617999047B8F10108F7D25B4621
:1030600021463846179A13E142E00A220092C4F33F
:1030700002524FF0000A022A08D059F804CB032A62
:103080004FEAEC710AD00DE029E02AE009F10701CE
:1030900021F00702F2E802C1914609E00FFA8CFC28
:1030A0004FEAEC71042A03D14FFA8CFC4FEAEC7121
:1030B000002907DA0A460021DCF1000C61EB02016D
:1030C0002D2202E0220504D52B228DF804200122B6
:1030D00003E0E20701D02022F7E7904659E00A21F9
:1030E00002E010220DE010214FF0000A00910BE0E9
:1030F00010224FF0000A44F004040827009203E075
:1031000008224FF0000A0092C4F30252022A05D0AE
:1031100059F804CB0021032A08D009E009F107017E
:1031200021F00702F2E802C1914605E01FFA8CFC8B
:10313000042A01D10CF0FF0C4FF00008220728D51B
:10314000702806D0009B83F0100353EA0A0305D0D1
:103150000EE040228DF80420012208E05CEA010222
:1031600006D030228DF804208DF80500022290460A
:10317000009B83F0080353EA0A030AD15CEA0102C8
:1031800001D1620705D530228DF804204FF00108E7
:103190007F1E582804D034A003900EA802900DE0A2
:1031A00036A0F9E753466046009AFDF766F9844673
:1031B0000398825C0298401E029002705CEA010053
:1031C000F0D1029806A9081A00F1200A600702D57A
:1031D00024F4803400E00127574502DDA7EB0A0004
:1031E00000E0002000EB0A01009005984144401ADD
:1031F0000590E00306D45B462146179A059800F037
:10320000B3F90544002706E001A85A46C05D1799A6
:1032100090476D1C7F1C4745F6DBE0030CD55B46F1
:103220002146179A059800F09FF9054404E03020E4
:103230005A46179990476D1C0099481E0090002926
:10324000F5DC08E0029802995A460078491C029180
:10325000179990476D1CBAF10001AAF1010AF1DC3F
:1032600065E100000928010030313233343536374A
:1032700038396162636465660000000030313233C2
:103280003435363738394142434445460000000062
:1032900000F058F90544761C307800287FF4ECAD36
:1032A00019B02846BDE8F08F620700D4062709F15F
:1032B000070222F0070CFCE80223E14603F0004875
:1032C0005FEA080C02D00FF2702C0DE05FEA045C9C
:1032D00002D50FF2682C07E05FEAC47C02D00FF23F
:1032E000602C01E0AFF2700C4FF0FF3823F0004388
:1032F000CDF850C065280CD006DC452809D04628FA
:103300001DD047283DD13DE0662818D067287ED1E2
:1033100038E00021112F01DB112000E0781CCDE9FD
:10332000000106A90EA8FFF7DDFCDDE90F010E9AEA
:1033300003910021009207F1010A04914DE04FF042
:1033400000400097CDE9011006A90EA8FFF7CAFCBE
:10335000DDE90F0203920E9B11990022DDF80CA00B
:103360000093049211B9791C00EB010AB7EB0A0033
:1033700004D4C0F1FF3007F1010A0490AAEB070062
:10338000019044E0012F00DA01270021112F01DD17
:10339000112000E03846CDE9000106A90EA8FFF78C
:1033A000A1FCDDE90F010E9A039100210491009226
:1033B000BA4621070CD40399514500DA8A46BAF17E
:1033C000010F05DD009AAAF10101515C302908D0F6
:1033D000B84202DA10F1040F06DA0121CDE901103A
:1033E00015E0AAF10101E9E7002805DC0499014490
:1033F0000491AAEB000102E0411C514500DD8A4620
:103400000499401A401C01904FF0004002902007A0
:1034100004D40198504501DBCDF8048000208DF8DC
:103420004F0002980DF14F07B0F1004F25D02B202F
:103430000E9002984FF0020800280CDA40420290E9
:103440002D200E9007E00A210298FDF700F8303198
:10345000029007F8011DB8F10001A8F10108F2DCA3
:1034600002980028EFD1791E0E980870307800F08D
:10347000200040F0450007F8020D12A8C01B00F123
:1034800007081498007800B1012000EB0A010198A8
:1034900001EBE07105984144401A401E0590E0039D
:1034A00006D45B462146179A059800F05DF805445E
:1034B0001498007818B15A46179990476D1CE0038C
:1034C00024D55B462146179A059800F04DF805442F
:1034D0001CE00498002807DBDDE90301884203DDD6
:1034E0000098405C179901E0179930205A469047A0
:1034F000049805F10105401C04900198401E0190BC
:1035000004D12E205A46179990476D1CBAF100013C
:10351000AAF1010ADDDC05E017F8010B5A461799FC
:1035200090476D1CB8F10001A8F10108F4DC5B467E
:103530002146179A0598ABE62D0000002B000000ED
:10354000200000002DE9F041044600251E461746E4
:10355000880404D405E039462020B0476D1C641E61
:10356000F9D52846BDE8F0812DE9F0410446002553
:103570001E469046C80301D5302700E02027880466
:1035800004D505E041463846B0476D1C641EF9D5A8
:103590002846BDE8F081000010B504460548FEF756
:1035A000ADFF0548046000BF034800680028FBD158
:1035B00010BD0000401901003C00002070B5044619
:1035C0000D46E1B20548FFF7D2FA00BF802103485B
:1035D000FFF7FFF90028F9D0204670BD00440040F5
:1035E00008B501214020FEF72BFD01212020FEF728
:1035F00027FD01210802FEF723FD01210846FEF701
:103600001FFD01218020FEF71BFD48208DF80300DF
:103610001020ADF8000003208DF802006946114823
:10362000FEF7CEF90820ADF8000069460D48FEF718
:10363000C7F90220ADF8000069460B48FEF7C0F953
:103640004FF48060ADF8000069460848FEF7B8F90D
:103650004FF40070ADF8000069460448FEF7B0F979
:1036600008BD000000180140001401400020014086
:1036700010B5FFF7B5FF10BD8AB0FFF7B9FAFDF737
:103680000DFDFEF791FBFEF7D7FBFEF7C7FDFFF739
:10369000EFFFFDF7C3F9FDF7D1FDFEF79DFBFEF748
:1036A000E3FBFEF7A7FDFEF745FD00205649087035
:1036B00008460078032801D1FEF710FF2422534961
:1036C00001A8FCF751FD01A8FFF7ECFA002407E080
:1036D00001A8005D18B101A9085DFFF74DFA641C4F
:1036E000232CF5DB8FE00120FDF79EFE4848007893
:1036F000FDF7E8FA474801780078401C454A107009
:103700000D2904DBFEF7B6FD00204249087042494E
:103710000888FCF768FE81464FF08B41FCF744FDBA
:103720000446FCF765FE07464FF066323B4BFCF75C
:1037300079FD0546FCF76FFE39490860364948882F
:10374000FCF751FE81464FF08B41FCF72DFD0446FE
:10375000FCF74EFE07464FF06632304BFCF762FD39
:103760000546FCF758FE2E4948602B498888FCF72F
:103770003AFE81464FF08B41FCF716FD0446FCF7FC
:1037800037FE07464FF06632244BFCF74BFD0546EB
:10379000FCF741FE224988600020FDF711FD8246BA
:1037A000FCF721FE81464FF08B41FCF7FDFC0446FF
:1037B000FCF71EFE07464FF06632184BFCF732FD51
:1037C0000546FCF728FE174908601020FDF7F8FCB5
:1037D0008246FCF708FE81464FF08B41FCF7E4FC83
:1037E0000446FCF705FE07464FF066320B4BFCF72C
:1037F00019FD0546FCF70FFE0B490860FEF7D4F9EA
:103800001420FFF7C9FE6EE7590000202C3800088D
:1038100084000020200000203600002066660A4058
:1038200090000020400000204400002048656C6C9F
:103830006F2C746869732069732053544D33322D93
:10384000506C61736D6143746C210A0000000000CC
:10385000703800080000002090000000C42C000810
:10386000003900089000002060050000D42C0008FA
:103870000000000001020304010203040607080916
:10388000020406080101000001010000010100001E
:103890000000000001010000010100000101000022
:1038A0000000000000000000000000000000000018
:1038B0000000000000000000000000000101000006
:1038C00001010000010100000000020201000000EF
:1038D00000000000000000000000000000000000E8
:1038E00004040000000000000101000001010000CC
:1038F00001010000000000000000000000000000C6
:0400000508000131BD
:00000001FF
